:020000040800F2
:1000000038090020014000084D1400084F14000872
:1000100053140008571400085B1400080000000087
:100020000000000000000000000000005F14000855
:100030006114000800000000631400086514000843
:100040001B4000081B4000081B4000081B40000824
:100050001B4000081B4000081B4000081B40000814
:100060001B4000081B4000081B4000081B40000804
:100070001B4000081B4000081B4000081B400008F4
:100080001B4000081B4000081B4000081B400008E4
:100090001B4000081B4000081B4000081B400008D4
:1000A0005D3F00081B4000081B4000081B40000883
:1000B0001B4000081B4000081B4000081B400008B4
:1000C0001B4000081B4000081B4000081B400008A4
:1000D0001B400008C53E00081B4000081B400008EC
:1000E0001B4000081B4000081B4000081B40000884
:1000F0001B4000081B4000081B4000081B40000874
:100100001B4000081B4000081B4000081B40000863
:100110001B4000081B4000081B4000081B40000853
:100120001B4000081B4000081B4000081B40000843
:100130001B4000081B4000081B4000081B40000833
:100140001B4000081B4000081B4000081B40000823
:100150001B4000081B4000081B4000081B40000813
:100160001B4000081B4000081B4000081B40000803
:100170001B4000081B4000081B4000081B400008F3
:100180001B4000081B40000800F002F800F04AF88D
:100190000AA090E8000C82448344AAF10107DA45E2
:1001A00001D100F03FF8AFF2090EBAE80F0013F0EA
:1001B000010F18BFFB1A43F0010318473C6C000005
:1001C0005C6C0000103A24BF78C878C1FAD8520796
:1001D00024BF30C830C144BF04680C6070470000C1
:1001E0000023002400250026103A28BF78C1FBD840
:1001F000520728BF30C148BF0B607047632905F024
:100200001E87002070471FB506F0B9FC06F068F99C
:1002100004000020002106F0A7F9401C60601FBD0B
:1002200010B510BD06F020F91146FFF7ECFF00F005
:100230005CFF06F047F903B4FFF7F2FF03BC03F0DD
:10024000CDFD000010B50121FE4804F059F930BB86
:100250004FF48071FB4804F06DF90021FA4805F075
:100260003FF84FF48071F94804F04AF958B9402139
:10027000F64804F05FF94021F24804F05DF90020EF
:10028000F349087084E04FF48051F04804F038F9E5
:1002900000287DD14021ED4804F04EF978E04FF47C
:1002A0008071E84804F048F94FF40041E94804F04F
:1002B00027F920B90121E44805F012F803E00021F4
:1002C000E14805F00DF8E448007818B18021DF48D6
:1002D00004F030F94FF48051DC4804F011F9E0B932
:1002E0000A2001F0CFFB4FF48051D84804F008F900
:1002F00028B94FF40041D74804F002F910B1D648AC
:100300000078E0B10120D24908708021CF4804F084
:1003100013F90020CC49486211E04FF48071CB48BA
:1003200004F0EEF858B90A2001F0ACFB4FF48071EC
:10033000C64804F0E5F810B90020C5490870C44863
:100340000078012813D1C448007808B3C348007866
:10035000F0B14021BB4804F0EDF84021BB4804F067
:10036000EBF80020BC490870BC49087010E0B848A0
:10037000007868B90020B64908704021B14804F0FF
:10038000DBF84021B14804F0D5F80120B3490870EA
:1003900010BD10B501F096FA04464FF40071AB4859
:1003A00004F0AEF8002845D14FF40041A94804F00C
:1003B000A7F800283ED1022C04D0032C14D0042C22
:1003C00036D123E040219F4804F0B6F840219F48F1
:1003D00004F0B2F880219D4804F0AEF8A04A08214C
:1003E000042002F043FB24E04021964804F0A2F8E8
:1003F0004021964804F0A0F88021944804F09CF82D
:10040000984A0821042002F031FB12E040218D4877
:1004100004F090F840218D4804F08EF880218B483C
:1004200004F08AF8904A0821042002F01FFB00E043
:1004300000BF91E04FF40071844804F061F8012896
:10044000F7D1C103834804F05BF80028F1D1012102
:100450007C4804F055F8E0BB022C02D0032C39D1C3
:100460001BE04021774804F067F84021774804F00A
:1004700063F88021754804F05DF84FF4807171488D
:1004800004F05AF84FF480716E4804F055F8774A3A
:100490000821042002F0EAFA1DE04021694804F036
:1004A00049F84021694804F045F88021674804F084
:1004B00041F84FF48071634804F03EF84FF48071C6
:1004C000604804F039F8694A0821042002F0CEFAA5
:1004D00001E002E000BF00BF10BD022C04D0032CDD
:1004E00014D0042C36D123E04021564804F024F8DF
:1004F0004021564804F020F88021544804F01AF8AE
:10050000574A0821042002F0B1FA24E040214D4866
:1005100004F010F840214D4804F00EF880214B48BB
:1005200004F008F84F4A0821042002F09FFA12E074
:100530004021444804F000F84021444803F0FAFF09
:100540008021424803F0F6FF484A0821042002F0C7
:100550008DFA00E000BF00BF00BFBDE700B52DED84
:10056000028BC1B042480088042832D1414890ED46
:10057000000ADFED410A20EE200ADFED400A80EE9E
:10058000201AB0EE418A01230222B0EE480A05216A
:10059000042002F0DAFA3A4890ED000ADFED360A5C
:1005A00020EE200ADFED350A80EE201AB0EE418AF7
:1005B00001230222B0EE480A0621042002F0C5FA07
:1005C000012302222F4890ED000A0721042002F0A7
:1005D000BCFA27480088062831D12B480068B0B9FA
:1005E0002A4801210268062002F02BFB27480068F8
:1005F000401C2649086008460068B0F5827F1EDB73
:100600004FF48270086001201F49086017E01E48FF
:100610000068012813D11D48008882B201210620FC
:1006200002F043FB19480068401E1849086008465C
:100630000068002803DC00200860134908600C48AB
:10064000008825E000000240004001400008024010
:1006500063000020000402407800002062000020B7
:100660000000002005000020170000200E000020E0
:100670003000002024000020D7A3804000007A44EE
:10068000280000202C00002040000020380000201E
:100690000A2879D1F84800686421B0FBF1F201FB27
:1006A0001200A8B9F548006890B9002205210A2077
:1006B00002F0B3F9012202210A2002F0AEF9002271
:1006C00001210A2002F00EFC0120EC4908605BE0E9
:1006D000E94800686421B0FBF1F201FB1200B0B9F7
:1006E000E6480068012812D1002202210A2002F007
:1006F00094F9012203210A2002F08FF90122114608
:100700000A2002F0EFFB0220DC4908603CE0DA48F6
:1007100000686421B0FBF1F201FB1200B0B9D748C8
:100720000068022812D1002203210A2002F075F984
:10073000012204210A2002F070F9022201210A207C
:1007400002F0D0FB0320CD4908601DE0CA480068D4
:100750006421B0FBF1F201FB1200A8B9C7480068A0
:10076000032811D1002204210A2002F056F90122A7
:1007700005210A2002F051F9032201210A2002F08A
:10078000B1FB0020BD490860BD4800880B283FD15F
:10079000BC480068E0B94FF48072BB4901A805F07D
:1007A000F1FB0220009001A8B84909684318002213
:1007B00001210B2002F064FCB4480068801CB3499E
:1007C000086008460068FF2801DB002008601FE081
:1007D000AC48006801281BD1B422AD4914A805F02B
:1007E000D1FB0220009014A8A849096843180022F0
:1007F00001210B2002F044FCA4480068801CA3499E
:10080000086008460068B42801DB0020086000BFCB
:100810009B480088102844D1974800686421B0FBA9
:10082000F1F201FB1200E0BB96480068D0B94FF42A
:100830008072954901A805F0A5FB01A893490968B4
:10084000421801231946102002F0ABFF8F480068C0
:10085000401C8E49086008460068FF2801DB002024
:1008600008601EE08748006801281AD1B422884930
:10087000B43114A805F086FB14A88449096842180D
:1008800001231946102002F08CFF80480068401CAC
:100890007E490860084600685A2801DB002008608D
:1008A00000BF41B0BDEC028B00BD10B5012202219A
:1008B000032002F0B2F810BD70B505460C46082DB5
:1008C00004D1072C02D1642001F0F4FD70BD0D2885
:1008D00003D1012901D16F4B1A700D2803D10229D0
:1008E00001D16D4B1A707047704770477CB5054653
:1008F0000E46144600200190072D1CD1022E1AD15D
:10090000642C00D3BCB122460121072002F065F916
:1009100001200023224603210090072002F0CFF897
:10092000FF20A0EB44025DA101A805F0F5F99DF8B8
:10093000040001F0A7FD072D11D1052E0FD1642C65
:1009400000D364B122460421072002F046F90120B9
:100950000023224606210090072002F0B0F87CBD5B
:10096000F8B504460E461546052C0AD14C480560DC
:100970000120002300904A4802210268052002F06D
:100980009EF8F8BD2DE9FC4104460D461646042CA0
:1009900029D10020019001AA42A1304605F02EFA8B
:1009A000022D1FD10198002802DA0020019006E0F4
:1009B0000198B0F5BE7F02DD4FF4BE7001900120BA
:1009C0000023009002210420019A02F078F801200F
:1009D000019F009007EBD7704210012305210420EE
:1009E00002F06DF800BFBDE8FC81F8B505460C4685
:1009F0001646032D72D1012E7BD10A2C77D2DFE867
:100A000004F076050A0F14212E5764704021264801
:100A100003F090FD6CE04021244803F08BFD67E07B
:100A20008021224803F086FD62E040211E4803F049
:100A300081FD40211D4803F07DFD80211B4803F00E
:100A400079FD55E04021184803F074FD4021174816
:100A500003F072FD8021154803F06EFD48E040214F
:100A6000114803F069FD4021104803F063FD802127
:100A70000E4803F061FD3BE0200000205400002000
:100A8000300000204C000020F86C000844000020DA
:100A9000906B0008580000205900002025630000DA
:100AA0005C000020256C6400000002400008024049
:100AB0004021FE4803F040FD4021FD4803F03CFD8D
:100AC0008021FB4803F036FD12E04FF48071F748B7
:100AD00003F030FD0120F749087009E03FE008E02D
:100AE00005E04FF48071F14803F024FD00E000BF01
:100AF00035E00A2C31D2DFE804F030050A0F14305B
:100B00003030212A4021E94803F016FD26E040213B
:100B1000E74803F011FD21E08021E54803F00CFDDA
:100B20001CE04021E14803F007FD4021E04803F0CC
:100B300003FD8021DE4803F0FFFC0FE04FF48071DD
:100B4000DA4803F0F7FC0020DA49087006E04FF4B9
:100B50008071D64803F0F0FC00E000BF00BF0B2D11
:100B60000AD1022C03D10020D349086004E0032CF1
:100B700002D10120D0490860082D05D1082C03D1ED
:100B8000012E01D103F0F9F80D2D3CD1042C3AD1FE
:100B9000CA480078062805DC002203210D2002F057
:100BA000E4F828E0C5480078072809DBC348007846
:100BB0000C2805DC012203210D2002F0D6F81AE0F2
:100BC000BE4800780D2809DBBC480078122805DCF7
:100BD000022203210D2002F0C8F80CE0B74800788B
:100BE000122808DDB5480078172804DC03221146D6
:100BF0000D2002F0BAF8B1480078B1490870B14848
:100C00000078B14908700D2D0DD1052C0BD1AC48E1
:100C1000027801210D2002F0A8F8AB4802780221E9
:100C20000D2002F0A2F8052D38D1032C1AD1A748C7
:100C30000068401EA549086008460068002801DCDD
:100C400000200860A14801210268052001F0C5FFCD
:100C50000120002300909D4802210268052001F038
:100C60002EFF1BE0042C19D198480068401C9749BE
:100C7000086008460068642801DB64200860934827
:100C800001210268052001F0A8FF01200023009047
:100C90008E4802210268052001F011FFF8BD1FB542
:100CA00004468B480480032C03D101208949087035
:100CB00002E000208749087085480088092803D190
:100CC000012102F0A0F870E081480088052803D1D6
:100CD000012102F073F868E07D4800880E2809D1F0
:100CE0007DA30FCB8DE80F006A4601210E2001F095
:100CF000BDFE5AE0764800880F2845D100231A46E9
:100D0000012102F01DFF0023012211460F2002F0F5
:100D100017FF0023022201210F2002F011FF002300
:100D2000032201210F2002F00BFF002304220121E6
:100D30000F2002F005FF0023052201210F2002F001
:100D4000FFFE0023062201210F2002F0F9FE0023FE
:100D5000072201210F2002F0F3FE4FF4FA6003F0A6
:100D60000FF900231A4601210F2002F028FF00236B
:100D7000012211460F2002F022FF0023022201214E
:100D80000F2002F01CFF10E05148008811280CD100
:100D9000554903C9CDE9020101220321112001F0C7
:100DA0003CFE02A802F0FDFF00BF1FBD2DE9F04F81
:100DB00087B005460E4617469846DDE911ABDDF8CB
:100DC00040900BF00F00CBF3071101EB810100EB1A
:100DD00041004649086005F00F00C5F3071101EB1B
:100DE000810100EB4100069006F00F00C6F30711E9
:100DF00001EB810100EB4100059007F00F00C7F304
:100E0000071101EB810100EB410408F00F00C8F36A
:100E1000071101EB810100EB4100049009F00F0084
:100E2000C9F3071101EB810100EB410003900AF0C7
:100E30000F00CAF3071101EB810100EB41000290A2
:100E400001200346009001460820069A01F037FE73
:100E500001200346009002210820059A01F02FFE90
:100E600001200346009003210820049A01F027FE88
:100E700001200346009004210820039A01F01FFE80
:100E800001200346009005210820029A01F017FE78
:100E9000012003460090154806210268082001F051
:100EA0000EFE4CBB12A20721082026E000000240E3
:100EB00000080240610000204C0000205800002083
:100EC0005A000020590000205B0000205C00002038
:100ED00030000020600000207777772E677A2D643D
:100EE000632E636F6D000000886B000848000020CF
:100EF000D0C7C6DAC8D5000002E001F0B7FD2EE089
:100F0000012C05D1FDA20721082001F0AFFD26E04C
:100F1000022C05D1FBA20721082001F0A7FD1EE04D
:100F2000032C05D1F9A20721082001F09FFD16E04E
:100F3000042C05D1F7A20721082001F097FD0EE04F
:100F4000052C05D1F5A20721082001F08FFD06E050
:100F5000062C04D1F3A20721082001F087FD07B079
:100F6000BDE8F08F7047704770472DE9FE4F04468B
:100F70000D466678A77894F807802079E17840EAF2
:100F80000129A079617940EA012A207A0106607A74
:100F900041EA0041A07A41EA0020E17A40EA010BEF
:100FA0000D2E2CD008DC012E0FD0032E0ED00B2ED0
:100FB00029D00C2E6FD11EE00F2E2CD0552E6BD0C9
:100FC000B12E43D0F72EF5D12BE000BFD74B5B7984
:100FD000DFF858C39CF804C043EA0C22D34BDB78FB
:100FE000DFF848C39CF802C043EA0C21CF4B587885
:100FF000FFF7BAFF76E00120FFF7B5FF72E00020AF
:10100000FFF7B1FF6EE0A81F82B2C849891C01201A
:10101000FFF7A8FF66E0002211461046FFF7A2FF87
:1010200060E0C248017AC079C04A9279DFF8FCC218
:10103000CDE9002002919CF805309CF804209CF832
:1010400003109CF80200FFF7B1FE4BE0012F03D123
:101050004846FFF724FE40E0A8F110000C283AD2E1
:10106000DFE800F0060C131B213939343939272EFB
:10107000627A51464846FFF7B8FC2DE004F10802B9
:1010800051464846FFF77EFC26E05A465146484600
:10109000FFF766FC20E024E020E05A46514648462F
:1010A000FFF724FC18E05A4651464846FFF71DFC5E
:1010B00012E0637A227A51464846FFF715FC0BE0AE
:1010C000227A51464846FFF702FC05E05146484661
:1010D000FFF7F2FB00E000BF00BF03E0FFF7E5FB16
:1010E00000E000BF00BFBDE8FE8F002500244FF4E4
:1010F000A06002F0A5FF02F052FF4FF4964002F00C
:101100007AFE44F29F114CF24F3002F0EFFE00F0F5
:10111000D0FB00F0B7FA00F02BFC4FF4967002F011
:101120002FFF89E18248007860B98248007848B989
:101130000121814803F0E4F910B1FFF783F801E0E1
:10114000FFF727F94021794800F058FC0546002DAB
:1011500008DD76484078072804D029467348FFF711
:1011600004FF17E0002D15DD70484078072811D1E5
:1011700071B600BFBFF34F8F7048006800F4E060A5
:101180006F490843001D6D490860BFF34F8F00BFD2
:1011900000BFFEE76B4800684FF49671B0FBF1F2B8
:1011A00001FB12000028BCD1664800680028B8D0B6
:1011B000032094FBF0F100FB114020B1012812D074
:1011C000022830D11FE09FED600A604880ED000AE0
:1011D0009FED5F0A5F4880ED000A9FED5F0A5F4860
:1011E00080ED000A20E09FED5E0A584880ED000A7D
:1011F0009FED5C0A574880ED000A9FED5B0A574857
:1012000080ED000A10E09FED590A504880ED000A79
:101210009FED570A4F4880ED000A9FED560A4F4850
:1012200080ED000A00E000BF00BFFFF797F94748D4
:1012300090ED000A00F05CFA464890ED000A00F0DC
:101240008AFA3C480078002856D02046E11704EB83
:101250005171C910A4EBC10108294ED2DFE801F099
:101260000416283A96A8BAD14021434803F064F9FD
:101270004021424803F060F98021404803F05CF9C6
:101280003F4A0821042001F0F1FBD2E040213A4816
:1012900003F050F94021394803F04EF980213748D6
:1012A00003F04AF9374A0821042001F0DFFBC0E0CF
:1012B0004021314803F03EF94021304803F03CF929
:1012C00080212E4803F038F92F4A0821042001F02C
:1012D000CDFBAEE04021284803F02EF940212748FD
:1012E00003F02AF98021254803F024F9244A082133
:1012F000042001F0BBFB9CE09CE099E0D0C7C6DA7B
:10130000D2BB0000D0C7C6DAB6FE0000D0C7C6DA2E
:10131000C8FD0000D0C7C6DACBC40000D0C7C6DA0B
:10132000CEE50000D0C7C6DAC1F900009400002065
:101330006000002061000020000C02400CED00E085
:101340000000FA05200000200000C8422400002010
:1013500000001643280000205C0FC9422C0000202A
:101360000080A2440000FA44AE4749420080BB44DA
:101370000000E1445C8F4842000002400008024047
:1013800000000020050000201700002040212B480D
:1013900003F0D0F840212A4803F0CEF880212848F5
:1013A00003F0C8F8274A0821042001F05FFB40E061
:1013B0004021224803F0C0F84021214803F0BAF848
:1013C00080211F4803F0B6F81F4A0821042001F0CD
:1013D0004DFB2EE04021194803F0AEF8402118489B
:1013E00003F0AAF88021164803F0A4F84FF48071A6
:1013F000124803F0A1F8144A0821042001F036FB3A
:1014000017E040210D4803F095F840210C4803F007
:1014100091F880210A4803F08DF84FF48071074855
:1014200003F08AF8084A0821042001F01FFB00E0BD
:1014300000BF00BF601CC4B274E6000000000240A0
:1014400000080240050000200E000020704700BF89
:10145000FEE700BFFEE700BFFEE700BFFEE7704704
:101460007047704702480068401C01490860704797
:10147000200000200CB50020019000907648006804
:1014800040F480307449086000BF7348006800F47D
:10149000003000900198401C0190009818B9019804
:1014A000B0F5A04FF1D16C48006800F4003010B1E5
:1014B0000120009001E0002000900098012846D112
:1014C00065484030006840F0805063494031086012
:1014D0006248006840F44040604908605E48083057
:1014E00000685D49083108600846006840F4004023
:1014F00008600846006840F4A05008605848091F7A
:101500000860081F006840F08070091F086000BF75
:101510005148006800F000700028F9D040F20570D2
:10152000504908604C480830006820F003004A49E0
:10153000083108600846006840F00200086000BFFB
:1015400045480830006800F00C000828F8D10CBDB0
:1015500010B54548006840F47000434908603E48B3
:10156000006840F001003C49086000203A49083119
:101570000860394800683D490840374908603C48E0
:10158000091D0860081F006820F48020091F0860FA
:10159000002031490C310860FFF76CFF4FF000600C
:1015A00031498039086010BD70B500200022022347
:1015B00000240221284D08352D6805F00C0020B1CB
:1015C000042806D0082834D107E02A4D2A4E356079
:1015D00033E02A4D284E35602FE01F4D2D1D2D681C
:1015E000C5F380541C4D2D1D2D6805F03F0154B1ED
:1015F000224DB5FBF1F5184E361D3668C6F3881638
:1016000005FB06F209E01B4DB5FBF1F5124E361D48
:101610003668C6F3881605FB06F20F4D2D1D2D68A2
:10162000C5F301456D1C6B00B2FBF3F5124E35603E
:1016300003E0104D104E356000BF00BF064D083569
:101640002D68C5F303150E4E705D0B4D2D68C5401A
:10165000094E356070BD0000003802400070004047
:1016600008544007003C024088ED00E0FFFFF6FE12
:10167000103000240024F4006400002000127A00DE
:101680006800002000B587B00121084603F074F916
:101690000121480703F0B9F93020059003208DF8A7
:1016A000180002208DF81B0005A9444802F0C6FE70
:1016B00000200190029003900220049001A90020D4
:1016C00002F039FD01A9102002F035FD01210020B2
:1016D00002F04EFD0121102002F04AFD00210846D3
:1016E00002F094FD0021084602F09DFD07B000BD08
:1016F00010B52DED068BB0EE409A19EE100A05F0EC
:10170000CDF941EC180B9FED2E0B53EC102B51EC47
:10171000180B04F03FFF41EC180B9FED2B0B53EC23
:10172000102B51EC180B05F0BBF841EC1A0B9FED98
:10173000280B53EC102B04F02DFF41EC180B51EC4F
:10174000180B05F07FF884B22146002002F05EFD00
:10175000BDEC068B10BD10B52DED068BB0EE409A9A
:1017600019EE100A05F09AF941EC180B9FED140BD5
:1017700053EC102B51EC180B04F00CFF41EC180B40
:101780009FED110B53EC102B51EC180B05F088F862
:1017900041EC1A0B9FED0E0B53EC102B04F0FAFEEC
:1017A00041EC180B51EC180B05F04CF884B22146B3
:1017B000002002F038FDBDEC068B10BD0000024099
:1017C0000000000000408F400000000000FEAF401D
:1017D0006666666666660A401CB50121052003F050
:1017E000CBF84FF4A070009001208DF80400032086
:1017F0008DF8050002208DF807006946574802F071
:101800001DFEC020009001208DF8040003208DF8FB
:10181000050002208DF807006946514802F00EFECF
:101820001CBD1CB50121092003F0A6F84FF4C050DF
:10183000009000208DF8040003208DF805000120A1
:101840008DF807006946454802F0F8FD4FF4004066
:1018500000906946434802F0F1FD1CBD1CB5012112
:101860000F2003F089F80120009000208DF804007B
:1018700003208DF8050001208DF8070069463748E0
:1018800002F0DCFD4FF4004000906946364802F05B
:10189000D5FD4FF4985000906946314802F0CEFDD6
:1018A000012000908DF8070069462E4802F0C6FD21
:1018B0001CBD10B5FFF790FFFFF7D0FFFFF7B1FF9A
:1018C00010BD704710B52948007878B34FF48051A7
:1018D000224802F015FE58B14FF400611F4802F093
:1018E0000FFE28B14FF400411E4802F009FEE8B98E
:1018F0000A2002F045FB00201C4908704FF480517B
:10190000164802F0FDFD08B9022010BD4FF4006139
:10191000124802F0F5FD08B90320F6E74FF4004144
:10192000104802F0EDFDB8B90420EEE7FFE74FF4F0
:1019300080510A4802F0E4FD01280DD1C102074898
:1019400002F0DEFD012807D1C103064802F0D8FDF0
:10195000012801D1054908700020D6E700000240A7
:1019600000080240000C0240000402407900002000
:10197000002041494880088040490860404908806B
:10198000704701463C4B1B88581CC31700EBD353D0
:101990005B12A0EB43239AB237484088904205D0AF
:1019A00035480388001DC154001F0280704701465E
:1019B00031484088304A128890420FD02E484288E1
:1019C000001D805C08702C4A5288501CC21700EB26
:1019D000D2525212A0EB4222274B5A80704726481F
:1019E000008800F50070244A5288811AC81701EB5C
:1019F000D0504012A1EB402080B27047F8B50446A9
:101A00000D460026002000902FE06846FFF7CFFF2C
:101A10001B48008820B99DF80000EE2800D024E083
:101A200017480088A84208DA9DF800101448028878
:101A30000088401C124B1880A1549DF800000F49EB
:101A4000096840EA01200D490860084600686FF403
:101A50004031884208D10A480688002007490860BA
:101A6000074908803046F8BD00BFFFF7B8FF0028DF
:101A7000CBDC0020F7E70000D40000207C00002031
:101A800080000020014606E04FF47A7200E0521E0A
:101A9000002AFCDC491E0029F6DC704710B504461C
:101AA00003E0207802F0F9F9641C20780028F8D1CE
:101AB00010BD70B505460E46002404E0285D02F016
:101AC000ECF9601C84B2B442F8DB70BD70B5054619
:101AD0000E4600240AE035F81410080A02F0DDF979
:101AE00015F8140002F0D9F9601C84B2B442F2DB9C
:101AF00070BD10B5EE2002F0D0F9042002F0CDF94F
:101B0000FF2002F0CAF9FC2002F0C7F9FF2002F022
:101B1000C4F9FF2002F0C1F910BD10B50446EE2053
:101B200002F0BBF9412002F0B8F9200A02F0B5F941
:101B3000E0B202F0B2F9FF2002F0AFF9FC2002F0AF
:101B4000ACF9FF2002F0A9F9FF2002F0A6F910BDC0
:101B500010B50446EE2002F0A0F9422002F09DF9F3
:101B6000200A02F09AF9E0B202F097F9FF2002F0A1
:101B700094F9FC2002F091F9FF2002F08EF9FF2089
:101B800002F08BF910BD70B506460C461546EE20E6
:101B900002F083F9A32002F080F9F0B202F07DF99F
:101BA000200A02F07AF9E0B202F077F9280A02F08E
:101BB00074F9E8B202F071F9FF2002F06EF9FC202E
:101BC00002F06BF9FF2002F068F9FF2002F065F9DE
:101BD00070BD10B5EE2002F060F9012002F05DF951
:101BE000FF2002F05AF9FC2002F057F9FF2002F022
:101BF00054F9FF2002F051F910BD70B504460D46AE
:101C0000EE2002F04AF9432002F047F9E0B202F078
:101C100044F9E8B202F041F9FF2002F03EF9FC205D
:101C200002F03BF9FF2002F038F9FF2002F035F90D
:101C300070BD70B506460C461546EE2002F02DF933
:101C4000452002F02AF9F0B202F027F9200A02F04A
:101C500024F9E0B202F021F9280A02F01EF9E8B2F4
:101C600002F01BF9FF2002F018F9FC2002F015F930
:101C7000FF2002F012F9FF2002F00FF970BD70B5DD
:101C800004460D46EE2002F008F9442002F005F962
:101C9000200A02F002F9E0B202F0FFF8280A02F08E
:101CA000FCF8E8B202F0F9F8FF2002F0F6F8FC20A8
:101CB00002F0F3F8FF2002F0F0F8FF2002F0EDF858
:101CC00070BD2DE9F04104460D4616461F46DDF86D
:101CD0001880EE2002F0E1F8202002F0DEF8200A61
:101CE00002F0DBF8E0B202F0D8F8280A02F0D5F8EA
:101CF000E8B202F0D2F8F0B202F0CFF8F8B202F097
:101D0000CCF84046FFF7CAFEFF2002F0C6F8FC20E0
:101D100002F0C3F8FF2002F0C0F8FF2002F0BDF887
:101D2000BDE8F0812DE9F04106460C4615461F46F8
:101D3000DDF81880EE2002F0B0F8212002F0ADF8B6
:101D4000F0B202F0AAF8200A02F0A7F8E0B202F01E
:101D5000A4F8280A02F0A1F8E8B202F09EF8F8B25E
:101D600002F09BF808F0FF0002F097F8FF2002F065
:101D700094F8FC2002F091F8FF2002F08EF8FF208A
:101D800002F08BF8BDE8F08170B504460D46EE20F8
:101D900002F083F8312002F080F8200A02F07DF88A
:101DA000E0B202F07AF8E8B202F077F8FF2002F031
:101DB00074F8FC2002F071F8FF2002F06EF8FF20AA
:101DC00002F06BF870BD2DE9F04104460D46164651
:101DD0001F46EE2002F061F8322002F05EF8200A81
:101DE00002F05BF8E0B202F058F8280A02F055F869
:101DF000E8B202F052F8300A02F04FF8F0B202F006
:101E00004CF8F8B202F049F8FF2002F046F8FC2046
:101E100002F043F8FF2002F040F8FF2002F03DF806
:101E2000BDE8F0812DE9F05F04460D4616461F46D9
:101E3000DDE90CABDDE90A89EE2002F02EF8332053
:101E400002F02BF8200A02F028F8E0B202F025F8A0
:101E5000280A02F022F8E8B202F01FF8300A02F075
:101E60001CF8F0B202F019F8380A02F016F8F8B2CD
:101E700002F013F84FEA182002F00FF808F0FF0004
:101E800002F00BF84FEA192002F007F809F0FF0002
:101E900002F003F84FEA1A2001F0FFFF0AF0FF00FA
:101EA00001F0FBFF0BF0FF0001F0F7FFFF2001F056
:101EB000F4FFFC2001F0F1FFFF2001F0EEFFFF2016
:101EC00001F0EBFFBDE8F09F2DE9F04104460D461F
:101ED00016461F46DDF81880EE2001F0DEFF802058
:101EE00001F0DBFF200A01F0D8FFE0B201F0D5FFDE
:101EF000280A01F0D2FFE8B201F0CFFF300A01F06A
:101F0000CCFFF0B201F0C9FFF8B201F0C6FF08F053
:101F1000FF0001F0C2FFFF2001F0BFFFFC2001F035
:101F2000BCFFFF2001F0B9FFFF2001F0B6FFBDE8C4
:101F3000F08170B504460D46EE2001F0AEFF502052
:101F400001F0ABFF200A01F0A8FFE0B201F0A5FF0D
:101F5000280A01F0A2FFE8B201F09FFFFF2001F084
:101F60009CFFFC2001F099FFFF2001F096FFFF206D
:101F700001F093FF70BD2DE9F04104460D46164671
:101F80001F46EE2001F089FF512001F086FF200A54
:101F900001F083FFE0B201F080FF280A01F07DFF2D
:101FA000E8B201F07AFF300A01F077FFF0B201F0F9
:101FB00074FF380A01F071FFF8B201F06EFFFF20E4
:101FC00001F06BFFFC2001F068FFFF2001F065FFCE
:101FD000FF2001F062FFBDE8F08170B505460E46B6
:101FE0001446EE2001F059FF632001F056FFE8B2DD
:101FF00001F053FF4FF6FF7000EA44013046FFF74F
:1020000065FDFF2001F049FFFC2001F046FFFF20A5
:1020100001F043FFFF2001F040FF70BD2DE9F041CA
:1020200004460D4616461F46EE2001F036FF5920A5
:1020300001F033FF200A01F030FFE0B201F02DFF84
:10204000280A01F02AFFE8B201F027FF394630469E
:10205000FFF73CFDFF2001F020FFFC2001F01DFFF9
:10206000FF2001F01AFFFF2001F017FFBDE8F0810B
:102070002DE9F04104460D4616461F46EE2001F0BC
:102080000CFF752001F009FF200A01F006FFE0B205
:1020900001F003FF280A01F000FFE8B201F0FDFEA5
:1020A00039463046FFF712FDFF2001F0F6FEFC2016
:1020B00001F0F3FEFF2001F0F0FEFF2001F0EDFE45
:1020C000BDE8F0812DE9F04104460D4616461F4655
:1020D000EE2001F0E2FE762001F0DFFE200A01F0A2
:1020E000DCFEE0B201F0D9FE280A01F0D6FEE8B22B
:1020F00001F0D3FE39463046FFF7E8FCFF2001F03F
:10210000CCFEFC2001F0C9FEFF2001F0C6FEFF203E
:1021100001F0C3FEBDE8F0812DE9F04104460D4613
:1021200016461F46EE2001F0B8FE772001F0B5FEFE
:10213000E0B201F0B2FEE8B201F0AFFEF0B201F0A1
:10214000ACFEF8B201F0A9FEFF2001F0A6FEFC20D3
:1021500001F0A3FEFF2001F0A0FEFF2001F09DFE94
:10216000BDE8F08170B505460C46EE2001F095FE05
:10217000682001F092FE4FF6FF7000EA4401284605
:10218000FFF7A4FCFF2001F088FEFC2001F085FE93
:10219000FF2001F082FEFF2001F07FFE70BD70B5D0
:1021A00005460C46EE2001F078FE692001F075FE30
:1021B0004FF6FF7000EA44012846FFF787FCFF2036
:1021C00001F06BFEFC2001F068FEFF2001F065FECF
:1021D000FF2001F062FE70BD70B504460D46164644
:1021E000EE2001F05AFE522001F057FE200A01F0C5
:1021F00054FEE0B201F051FE280A01F04EFEE8B2B2
:1022000001F04BFE300A01F048FEF0B201F045FE4D
:10221000FF2001F042FEFC2001F03FFEFF2001F014
:102220003CFEFF2001F039FE70BD70B504460D463E
:102230001646EE2001F031FE532001F02EFE200A5A
:1022400001F02BFEE0B201F028FE280A01F025FE85
:10225000E8B201F022FE300A01F01FFEF0B201F0F8
:102260001CFEFF2001F019FEFC2001F016FEFF20ED
:1022700001F013FEFF2001F010FE70BD2DE9F041CA
:1022800004460D4616461F46DDF81880EE2001F084
:1022900004FE672001F001FE200A01F0FEFDE0B21D
:1022A00001F0FBFD280A01F0F8FDE8B201F0F5FDB0
:1022B000300A01F0F2FDF0B201F0EFFD380A01F052
:1022C000ECFDF8B201F0E9FD4FEA182001F0E5FD60
:1022D00008F0FF0001F0E1FDFF2001F0DEFDFC2031
:1022E00001F0DBFDFF2001F0D8FDFF2001F0D5FD5E
:1022F000BDE8F0812DE9F04104460D4616461F4623
:10230000EE2001F0CAFD542001F0C7FD200A01F0C3
:10231000C4FDE0B201F0C1FD280A01F0BEFDE8B243
:1023200001F0BBFD300A01F0B8FDF0B201F0B5FDDF
:10233000380A01F0B2FDF8B201F0AFFDFF2001F064
:10234000ACFDFC2001F0A9FDFF2001F0A6FDFF205F
:1023500001F0A3FDBDE8F0812DE9F04104460D46F2
:1023600016461F46EE2001F098FD552001F095FD20
:10237000200A01F092FDE0B201F08FFD280A01F081
:102380008CFDE8B201F089FD300A01F086FDF0B263
:1023900001F083FD380A01F080FDF8B201F07DFD07
:1023A000FF2001F07AFDFC2001F077FDFF2001F015
:1023B00074FDFF2001F071FDBDE8F0812DE9F041D1
:1023C00004460D4616461F46EE2001F066FD5620D7
:1023D00001F063FD200A01F060FDE0B201F05DFD57
:1023E000280A01F05AFDE8B201F057FD300A01F069
:1023F00054FDF0B201F051FD380A01F04EFDF8B283
:1024000001F04BFDFF2001F048FDFC2001F045FDEF
:10241000FF2001F042FDFF2001F03FFDBDE8F0810B
:102420002DE9F04104460D4616461F46EE2001F008
:1024300034FD572001F031FD200A01F02EFDE0B2FD
:1024400001F02BFD280A01F028FDE8B201F025FD7E
:10245000300A01F022FDF0B201F01FFD380A01F050
:102460001CFDF8B201F019FDFF2001F016FDFC2063
:1024700001F013FDFF2001F010FDFF2001F00DFD24
:10248000BDE8F08110B50446EE2001F006FD6020A5
:1024900001F003FDE0B201F000FDFF2001F0FDFCC2
:1024A000FC2001F0FAFCFF2001F0F7FCFF2001F016
:1024B000F4FC10BD10B50446EE2001F0EEFC6120E6
:1024C00001F0EBFCE0B201F0E8FCFF2001F0E5FCDC
:1024D000FC2001F0E2FCFF2001F0DFFCFF2001F016
:1024E000DCFC10BD2DE9F04104460D4616461F46A2
:1024F000EE2001F0D2FC652001F0CFFC200A01F0B3
:10250000CCFCE0B201F0C9FC280A01F0C6FCE8B23C
:1025100001F0C3FC300A01F0C0FCF0B201F0BDFCD8
:10252000380A01F0BAFCF8B201F0B7FCFF2001F064
:10253000B4FCFC2001F0B1FCFF2001F0AEFCFF2058
:1025400001F0ABFCBDE8F0812DE9F041074688467B
:1025500015461E4600240FB144F00104B8F1000FE7
:1025600001D044F0020415B144EA8500C4B216B1AA
:1025700044EA4610C4B2EE2001F08FFC702001F056
:102580008CFCE0B201F089FCFF2001F086FCFC200D
:1025900001F083FCFF2001F080FCFF2001F07DFCB6
:1025A000BDE8F08110B5EE2001F077FC722001F05B
:1025B00074FCFF2001F071FCFC2001F06EFCFF2098
:1025C00001F06BFCFF2001F068FC10BD10B5EE209F
:1025D00001F063FC732001F060FCFF2001F05DFC62
:1025E000FC2001F05AFCFF2001F057FCFF2001F015
:1025F00054FC10BD10B5EE2001F04FFC092001F095
:102600004CFCDE2001F049FCED2001F046FC1320DB
:1026100001F043FC312001F040FCFF2001F03DFCC3
:10262000FC2001F03AFCFF2001F037FCFF2001F014
:1026300034FC10BD10B5EE2001F02FFC082001F095
:102640002CFCA52001F029FC5A2001F026FC5F207B
:1026500001F023FCF52001F020FCFF2001F01DFC1F
:10266000FC2001F01AFCFF2001F017FCFF2001F014
:1026700014FC10BD10B50446EE2001F00EFCA020A5
:1026800001F00BFCE0B201F008FCFF2001F005FCBA
:10269000FC2001F002FCFF2001F0FFFBFF2001F015
:1026A000FCFB10BD10B50446EE2001F0F6FBA120A6
:1026B00001F0F3FBE0B201F0F0FBFF2001F0EDFBD5
:1026C000FC2001F0EAFBFF2001F0E7FBFF2001F016
:1026D000E4FB10BD10B50446EE2001F0DEFBA220A5
:1026E00001F0DBFBE0B201F0D8FBFF2001F0D5FBED
:1026F000FC2001F0D2FBFF2001F0CFFBFF2001F016
:10270000CCFB10BD70B504460D46EE2001F0C5FBB4
:10271000A42001F0C2FBE0B201F0BFFBE8B201F07F
:10272000BCFBFF2001F0B9FBFC2001F0B6FBFF2051
:1027300001F0B3FBFF2001F0B0FB70BD10B5044603
:10274000EE2001F0AAFB052001F0A7FBE0B201F0AA
:10275000A4FBFF2001F0A1FBFC2001F09EFBFF2069
:1027600001F09BFBFF2001F098FB10BD2DE9F04725
:1027700005460E4617461C46DDE90889EE2001F0A5
:102780008CFB852001F089FBE8B201F086FBF0B2FA
:1027900001F083FBF8B201F080FB200A01F07DFB21
:1027A000E0B201F07AFB4FEA182001F076FB08F066
:1027B000FF0001F072FB4FEA192001F06EFB09F0F7
:1027C000FF0001F06AFBFF2001F067FBFC2001F035
:1027D00064FBFF2001F061FBFF2001F05EFBBDE820
:1027E000F08770B504460E461546EE2001F055FB05
:1027F000872001F052FB200E01F04FFBC4F307408D
:1028000001F04BFBC4F3072001F047FBE0B201F0FD
:1028100044FB31462846FFF74CF9FF2001F03DFB11
:10282000FC2001F03AFBFF2001F037FBFF2001F014
:1028300034FB70BD70B504460D46EE2001F02DFB53
:10284000882001F02AFB200E01F027FBC4F307408B
:1028500001F023FBC4F3072001F01FFBE0B201F0FD
:102860001CFB280A01F019FBE8B201F016FBFF205F
:1028700001F013FBFC2001F010FBFF2001F00DFB29
:10288000FF2001F00AFB70BD10B50446EE2001F0F8
:1028900004FBB12001F001FB012001F0FEFAFF2052
:1028A00001F0FBFAFC2001F0F8FAFF2001F0F5FA44
:1028B000FF2001F0F2FA10BD10B50446EE2001F041
:1028C000ECFAB12001F0E9FA002001F0E6FA200A62
:1028D00001F0E3FAE0B201F0E0FAFF2001F0DDFAE6
:1028E000FC2001F0DAFAFF2001F0D7FAFF2001F016
:1028F000D4FA10BD10B50446EE2001F0CEFAB32094
:1029000001F0CBFAE0B201F0C8FAFF2001F0C5FAFD
:10291000FC2001F0C2FAFF2001F0BFFAFF2001F015
:10292000BCFA10BD70B504460D461646EE2001F007
:10293000B4FAB12001F0B1FA022001F0AEFA200A97
:1029400001F0ABFAE0B201F0A8FA280A01F0A5FA0A
:10295000E8B201F0A2FAF0B201F09FFAFF2001F014
:102960009CFAFC2001F099FAFF2001F096FAFF2072
:1029700001F093FA70BD70B504460D461646EE2080
:1029800001F08BFAB12001F088FA032001F085FAFA
:10299000200A01F082FAE0B201F07FFA280A01F081
:1029A0007CFAE8B201F079FAF0B201F076FAFF2091
:1029B00001F073FAFC2001F070FAFF2001F06DFACB
:1029C000FF2001F06AFA70BD70B504460D46164648
:1029D000EE2001F062FAB12001F05FFA042001F06C
:1029E0005CFA200A01F059FAE0B201F056FA280A1E
:1029F00001F053FAE8B201F050FAF0B201F04DFAEA
:102A0000FF2001F04AFAFC2001F047FAFF2001F014
:102A100044FAFF2001F041FA70BD70B504460D463E
:102A20001646EE2001F039FAB12001F036FA1020F6
:102A300001F033FA200A01F030FAE0B201F02DFA89
:102A4000280A01F02AFAE8B201F027FAF0B201F000
:102A500024FAFF2001F021FAFC2001F01EFAFF20E9
:102A600001F01BFAFF2001F018FA70BD70B50446A2
:102A70000D461646EE2001F010FAB12001F00DFAD5
:102A8000102001F00AFA200A01F007FAE0B201F082
:102A900004FA280A01F001FAE8B201F0FEF9304622
:102AA000FEF7FCFFFF2001F0F8F9FC2001F0F5F93A
:102AB000FF2001F0F2F9FF2001F0EFF970BD2DE9E0
:102AC000F04105460E4614461F46DDF81880EE20FC
:102AD00001F0E3F9B12001F0E0F9072001F0DDF9A0
:102AE000280A01F0DAF9E8B201F0D7F9300A01F06A
:102AF000D4F9F0B201F0D1F90FB1012100E00021C9
:102B0000C8B201F0CAF908F00F0141F0800001F0ED
:102B1000C4F9200E01F0C1F9C4F3074001F0BDF97A
:102B2000C4F3072001F0B9F9E0B201F0B6F9FF20D3
:102B300001F0B3F9FC2001F0B0F9FF2001F0ADF98C
:102B4000FF2001F0AAF9BDE8F0812DE9FF412DED4C
:102B5000020B04460D46174698460026EE2001F06B
:102B60009CF9B12001F099F9072001F096F9200AAB
:102B700001F093F9E0B201F090F9280A01F08DF923
:102B8000E8B201F08AF9022001F087F907F00F019D
:102B9000B8F1000F01D0802200E000221143C8B23A
:102BA00001F07BF9002607E0C6F103011DF80100E2
:102BB00001F073F9701CC6B2042EF5DBFF2001F0A2
:102BC0006CF9FC2001F069F9FF2001F066F9FF20A3
:102BD00001F063F906B0BDE8F08170B505460E4618
:102BE0001446EE2001F059F9B12001F056F91020F9
:102BF00001F053F9280A01F050F9E8B201F04DF95B
:102C0000300A01F04AF9F0B201F047F9200E01F064
:102C100044F9C4F3074001F040F9C4F3072001F080
:102C20003CF9E0B201F039F9FF2001F036F9FC205F
:102C300001F033F9FF2001F030F9FF2001F02DF908
:102C400070BD70B505460E461446EE2001F025F91C
:102C5000B12001F022F9102001F01FF9280A01F03B
:102C60001CF9E8B201F019F9300A01F016F9F0B2D6
:102C700001F013F9200E01F010F9C4F3074001F040
:102C80000CF9C4F3072001F008F9E0B201F005F9EE
:102C9000FF2001F002F9FC2001F0FFF8FF2001F015
:102CA000FCF8FF2001F0F9F870BD70B504460D4640
:102CB0001646EE2001F0F1F8B12001F0EEF81020F8
:102CC00001F0EBF8200A01F0E8F8E0B201F0E5F8D5
:102CD000280A01F0E2F8E8B201F0DFF8300A01F06A
:102CE000DCF8F0B201F0D9F8FF2001F0D6F8FC20B2
:102CF00001F0D3F8FF2001F0D0F8FF2001F0CDF86B
:102D000070BD70B505460E461446EE2001F0C5F8BC
:102D1000B12001F0C2F8102001F0BFF8280A01F03C
:102D2000BCF8E8B201F0B9F8300A01F0B6F8F0B238
:102D300001F0B3F8200E01F0B0F8C4F3074001F041
:102D4000ACF8C4F3072001F0A8F8E0B201F0A5F850
:102D5000FF2001F0A2F8FC2001F09FF8FF2001F015
:102D60009CF8FF2001F099F870BD70B504460D463F
:102D70001646EE2001F091F8B12001F08EF81020F7
:102D800001F08BF8200A01F088F8E0B201F085F834
:102D9000280A01F082F8E8B201F07FF8F0B201F001
:102DA0007CF8FF2001F079F8FC2001F076F8FF2094
:102DB00001F073F8FF2001F070F870BD70B50446A3
:102DC0000D46EE2001F069F8B12001F066F81120FF
:102DD00001F063F8200A01F060F8E0B201F05DF85C
:102DE000280A01F05AF8E8B201F057F8FF2001F084
:102DF00054F8FC2001F051F8FF2001F04EF8FF20BC
:102E000001F04BF870BD70B504460D46EE2001F0A0
:102E100044F8B12001F041F8202001F03EF8200AEA
:102E200001F03BF8E0B201F038F8280A01F035F87B
:102E3000E8B201F032F8FF2001F02FF8FC2001F099
:102E40002CF8FF2001F029F8FF2001F026F870BDD2
:102E500070B504460D46EE2001F01FF8B12001F0D8
:102E60001CF8212001F019F8200A01F016F8E0B250
:102E700001F013F8280A01F010F8E8B201F00DF89B
:102E8000FF2001F00AF8FC2001F007F8FF2001F014
:102E900004F8FF2001F001F870BD70B504460D463E
:102EA000EE2000F0FAFFB12000F0F7FF222000F042
:102EB000F4FF200A00F0F1FFE0B200F0EEFF280A74
:102EC00000F0EBFFE8B200F0E8FFFF2000F0E5FFC4
:102ED000FC2000F0E2FFFF2000F0DFFFFF2000F009
:102EE000DCFF70BD70B504460D461646EE2000F0BE
:102EF000D4FFB12000F0D1FF232000F0CEFF200A44
:102F000000F0CBFFE0B200F0C8FF280A00F0C5FFD8
:102F1000E8B200F0C2FFF0B200F0BFFFFF2000F007
:102F2000BCFFFC2000F0B9FFFF2000F0B6FFFF203F
:102F300000F0B3FF70BD70B504460D46EE2000F002
:102F4000ACFFB12000F0A9FF242000F0A6FF200A6A
:102F500000F0A3FFE0B200F0A0FF280A00F09DFF00
:102F6000E8B200F09AFFFF2000F097FFFC2000F08D
:102F700094FFFF2000F091FFFF2000F08EFF70BD56
:102F800070B504460D46EE2000F087FFB12000F03A
:102F900084FF252000F081FF200A00F07EFFE0B2D0
:102FA00000F07BFF280A00F078FFE8B200F075FF20
:102FB000FF2000F072FFFC2000F06FFFFF2000F008
:102FC0006CFFFF2000F069FF70BD2DE9F041044661
:102FD0000D4617461E46EE2000F05FFFB12000F0C0
:102FE0005CFF302000F059FF200A00F056FFE0B2ED
:102FF00000F053FF280A00F050FFE8B200F04DFF48
:10300000F8B200F04AFF300A00F047FFF0B200F0DB
:1030100044FFFF2000F041FFFC2000F03EFFFF20B6
:1030200000F03BFFFF2000F038FFBDE8F08170B5F5
:1030300004460D461646EE2000F02FFFB12000F0AA
:103040002CFF312000F029FF200A00F026FFE0B21B
:1030500000F023FF280A00F020FFE8B200F01DFF77
:10306000F0B200F01AFFFF2000F017FFFC2000F084
:1030700014FFFF2000F011FFFF2000F00EFF70BDD5
:103080002DE9F04104460D4617469846069EEE206F
:1030900000F003FFB12000F000FF322000F0FDFE41
:1030A000200A00F0FAFEE0B200F0F7FE280A00F075
:1030B000F4FEE8B200F0F1FEF8B200F0EEFE300AE5
:1030C00000F0EBFEF0B200F0E8FE31464046FEF7BD
:1030D000F0FCFF2000F0E1FEFC2000F0DEFEFF200F
:1030E00000F0DBFEFF2000F0D8FEBDE8F08170B5F7
:1030F00004460D461646EE2000F0CFFEB12000F04B
:10310000CCFE332000F0C9FE200A00F0C6FEE0B27B
:1031100000F0C3FE280A00F0C0FEE8B200F0BDFED9
:10312000F0B200F0BAFEFF2000F0B7FEFC2000F085
:10313000B4FEFF2000F0B1FEFF2000F0AEFE70BD37
:103140002DE9F04704460D4616461F46DDE908897D
:10315000EE2000F0A2FEB12000F09FFE342000F02F
:103160009CFE200A00F099FEE0B200F096FE280ACC
:1031700000F093FEE8B200F090FEC6F3072000F0E6
:103180008CFEF0B200F089FE380A00F086FEF8B23C
:1031900000F083FEC8F3072000F07FFE08F0FF0078
:1031A00000F07BFE4FEA192000F077FE09F0FF00E7
:1031B00000F073FEFF2000F070FEFC2000F06DFEBA
:1031C000FF2000F06AFEFF2000F067FEBDE8F087F8
:1031D00010B50446EE2000F060FEB12000F05DFE68
:1031E000122000F05AFE200A00F057FEE0B200F074
:1031F00054FE10BD70B504460D46200A00F04DFE89
:10320000E0B200F04AFE002000F047FE012000F08E
:1032100044FEE8B200F041FE70BD70B505460C46B4
:10322000280A00F03AFEE8B200F037FE002000F075
:1032300034FE042000F031FE200E00F02EFEC4F318
:10324000074000F02AFEC4F3072000F026FEE0B29B
:1032500000F023FE70BD70B505460C46280A00F04C
:103260001CFEE8B200F019FE002000F016FE04205B
:1032700000F013FE200E00F010FEC4F3074000F033
:103280000CFEC4F3072000F008FEE0B200F005FEDB
:1032900070BD70B505460C46280A00F0FEFDE8B288
:1032A00000F0FBFD002000F0F8FD042000F0F5FD2B
:1032B000200E00F0F2FDC4F3074000F0EEFDC4F371
:1032C000072000F0EAFDE0B200F0E7FD70BD014626
:1032D0000A4600E0491C08780028FBD1881A70478C
:1032E00070B504460D46200A00F0D7FDE0B200F0AC
:1032F000D4FD2846FFF7EBFFC0F30726304600F069
:10330000CCFD2846FFF7E3FFC6B2304600F0C5FD0E
:103310002846FEF7C3FB70BD70B504460D46200A73
:1033200000F0BBFDE0B200F0B8FD002000F0B5FDFC
:10333000022000F0B2FD280A00F0AFFDE8B200F074
:10334000ACFD70BD70B504460D46200A00F0A5FD29
:10335000E0B200F0A2FD012000F09FFDE8B200F015
:103360009CFD70BD70B504460D46200A00F095FD29
:10337000E0B200F092FD022000F08FFDE8B200F014
:103380008CFD70BD10B5FF2000F087FDFC2000F023
:1033900084FDFF2000F081FDFF2000F07EFD10BDC8
:1033A00070B505460E461446EE2000F076FDB120BD
:1033B00000F073FD402000F070FD280A00F06DFD64
:1033C000E8B200F06AFD300A00F067FDF0B200F0EC
:1033D00064FD200E00F061FDC4F3074000F05DFDC8
:1033E000C4F3072000F059FDE0B200F056FDFF20C5
:1033F00000F053FDFC2000F050FDFF2000F04DFDDB
:10340000FF2000F04AFD70BD70B504460D46EE2069
:1034100000F043FDB12000F040FD412000F03DFDF3
:10342000200A00F03AFDE0B200F037FD280A00F073
:1034300034FDE8B200F031FDFF2000F02EFDFC204D
:1034400000F02BFDFF2000F028FDFF2000F025FDFF
:1034500070BD70B504460D46EE2000F01EFDB12093
:1034600000F01BFD422000F018FD200A00F015FDC1
:10347000E0B200F012FD280A00F00FFDE8B200F003
:103480000CFDFF2000F009FDFC2000F006FDFF20F0
:1034900000F003FDFF2000F000FD70BD70B5044694
:1034A0000D46EE2000F0F9FCB12000F0F6FC4420BF
:1034B00000F0F3FC200A00F0F0FCE0B200F0EDFCBC
:1034C000280A00F0EAFCE8B200F0E7FCFF2000F078
:1034D000E4FCFC2000F0E1FCFF2000F0DEFCFF201B
:1034E00000F0DBFC70BD70B504460D461646EE20BC
:1034F00000F0D3FCB12000F0D0FC182000F0CDFC8F
:10350000200A00F0CAFCE0B200F0C7FC280A00F074
:10351000C4FCE8B200F0C1FC300A00F0BEFCF0B21E
:1035200000F0BBFCFF2000F0B8FCFC2000F0B5FC74
:10353000FF2000F0B2FCFF2000F0AFFC70BD70B5C2
:1035400004460D461646EE2000F0A7FCB12000F020
:10355000A4FC192000F0A1FC200A00F09EFCE0B2BF
:1035600000F09BFC280A00F098FCE8B200F095FC03
:10357000300A00F092FCF0B200F08FFCFF2000F067
:103580008CFCFC2000F089FCFF2000F086FCFF2072
:1035900000F083FC70BD2DE9F04104460D4617464E
:1035A0001E46EE2000F079FCB12000F076FC1320DE
:1035B00000F073FC200A00F070FCE0B200F06DFC3B
:1035C000280A00F06AFCE8B200F067FCF8B200F0EC
:1035D00064FC300A00F061FCF0B200F05EFCFF20F9
:1035E00000F05BFCFC2000F058FCFF2000F055FCD4
:1035F000FF2000F052FCBDE8F0812DE9F0470646BF
:103600000C4615461F46DDE90889EE2000F045FC12
:10361000862000F042FCF0B200F03FFC200A00F0EF
:103620003CFCE0B200F039FC280A00F036FCE8B2BD
:1036300000F033FCF8B200F030FC08F0FF0000F0BE
:103640002CFC09F0FF0000F028FCFF2000F025FC16
:10365000FC2000F022FCFF2000F01FFCFF2000F007
:103660001CFCBDE8F08770B505460E462C460EB131
:1036700044F08004EE2000F010FCC12000F00DFCAE
:10368000E0B200F00AFC04F1C101C8B200F005FC90
:10369000FF2000F002FCFC2000F0FFFBFF2000F008
:1036A000FCFBFF2000F0F9FB70BD70B504460D4631
:1036B000EE2000F0F2FBB12000F0EFFBAA2000F0BA
:1036C000ECFB200E00F0E9FBC4F3074000F0E5FB43
:1036D000C4F3072000F0E1FBE0B200F0DEFB280EAF
:1036E00000F0DBFBC5F3074000F0D7FBC5F3072074
:1036F00000F0D3FBE8B200F0D0FB70BD70B504461B
:103700000D46200A00F0C9FBE0B200F0C6FB280A13
:1037100000F0C3FBE8B200F0C0FB70BD10B5FF20A5
:1037200000F0BBFBFC2000F0B8FBFF2000F0B5FB75
:10373000FF2000F0B2FB10BD70B504460D46EE2030
:1037400000F0ABFBB12000F0A8FBAB2000F0A5FB24
:10375000200E00F0A2FBC4F3074000F09EFBC4F370
:10376000072000F09AFBE0B200F097FB280E00F073
:1037700094FBC5F3074000F090FBC5F3072000F071
:103780008CFBE8B200F089FBFF2000F086FBFC20F8
:1037900000F083FBFF2000F080FBFF2000F07DFBAA
:1037A00070BD2DE9F04104460D4616461F46EE2039
:1037B00000F073FBB12000F070FB602000F06DFBA7
:1037C000200A00F06AFBE0B200F067FB280A00F074
:1037D00064FBE8B200F061FB39463046FEF769F958
:1037E000FF2000F05AFBFC2000F057FBFF2000F008
:1037F00054FBFF2000F051FBBDE8F0812DE9F041C2
:1038000004460D4616461F46EE2000F046FBB1204A
:1038100000F043FB602000F040FB200A00F03DFB7D
:10382000E0B200F03AFB280A00F037FBE8B200F003
:1038300034FB39463046FEF749F9FF2000F02DFBF6
:10384000FC2000F02AFBFF2000F027FBFF2000F007
:1038500024FBBDE8F0812DE9F04106460F461546F0
:1038600098460024EE2000F018FBB12000F015FB74
:10387000602000F012FB300A00F00FFBF0B200F005
:103880000CFB380A00F009FBF8B200F006FB16E06A
:1038900055F82410080E00F000FB55F82410C1F371
:1038A000074000F0FAFA35F82410C1F3072000F0C1
:1038B000F4FA15F8240000F0F0FA601CC4B2444594
:1038C000E6DBFF2000F0E9FAFC2000F0E6FAFF203A
:1038D00000F0E3FAFF2000F0E0FABDE8F0812DE906
:1038E000F04705460E469046994600270024EE20F4
:1038F00000F0D3FAB12000F0D0FA602000F0CDFA49
:10390000280A00F0CAFAE8B200F0C7FA300A00F05C
:10391000C4FAF0B200F0C1FA11E058F82740200EC6
:1039200000F0BBFAC4F3074000F0B7FAC4F3072075
:1039300000F0B3FAE0B200F0B0FA781CC7B24F451D
:10394000EBDBFF2000F0A9FAFC2000F0A6FAFF2034
:1039500000F0A3FAFF2000F0A0FABDE8F08770B5F0
:1039600004460D461646EE2000F097FAB12000F00E
:1039700094FA612000F091FA200A00F08EFAE0B289
:1039800000F08BFA280A00F088FAE8B200F085FA15
:10399000F0B200F082FAFF2000F07FFAFC2000F085
:1039A0007CFAFF2000F079FAFF2000F076FA70BD73
:1039B0002DE9F04104460D4616461F46EE2000F064
:1039C0006CFAB12000F069FA622000F066FA200A71
:1039D00000F063FAE0B200F060FA280A00F05DFA45
:1039E000E8B200F05AFAF0B200F057FAF8B200F07C
:1039F00054FAFF2000F051FAFC2000F04EFAFF20AC
:103A000000F04BFAFF2000F048FABDE8F08170B5F5
:103A100004460D461646EE2000F03FFAB12000F0B5
:103A20003CFA632000F039FA200A00F036FAE0B2DE
:103A300000F033FA280A00F030FAE8B200F02DFA6C
:103A4000002000F02AFA300A00F027FAF0B200F065
:103A500024FAFF2000F021FAFC2000F01EFAFF20DB
:103A600000F01BFAFF2000F018FA70BD70B5044694
:103A70000D46EE2000F011FAB12000F00EFA63209E
:103A800000F00BFA200A00F008FAE0B200F005FAA4
:103A9000280A00F002FAE8B200F0FFF9012000F075
:103AA000FCF9FF2000F0F9F9FC2000F0F6F9FF2006
:103AB00000F0F3F9FF2000F0F0F970BD2DE9F041BE
:103AC00004460D4616461F46DDF81880EE2000F02D
:103AD000E4F9B12000F0E1F9632000F0DEF9200AFA
:103AE00000F0DBF9E0B200F0D8F9280A00F0D5F9CF
:103AF000E8B200F0D2F9022000F0CFF9300A00F06D
:103B0000CCF9F0B200F0C9F9380A00F0C6F9F8B201
:103B100000F0C3F94FEA182000F0BFF908F0FF00E9
:103B200000F0BBF9FF2000F0B8F9FC2000F0B5F977
:103B3000FF2000F0B2F9FF2000F0AFF9BDE8F081FE
:103B40002DE9F04104460D4616461F464FF0000889
:103B5000EE2000F0A2F9B12000F09FF9502000F013
:103B60009CF9200A00F099F9E0B200F096F9280AD1
:103B700000F093F9E8B200F090F9300A00F08DF906
:103B8000F0B200F08AF967B100BF07E017F808004B
:103B900000F083F908F1010000F0FF08B8F1070F09
:103BA000F4DBFF2000F079F9FC2000F076F9FF202B
:103BB00000F073F9FF2000F070F9BDE8F0812DE905
:103BC000F04104460D4616461F464FF00008EE2011
:103BD00000F063F9B12000F060F9512000F05DF9C8
:103BE000200A00F05AF9E0B200F057F9280A00F074
:103BF00054F9E8B200F051F9300A00F04EF9F0B291
:103C000000F04BF967B100BF07E017F8080000F0BB
:103C100044F908F1010000F0FF08B8F1070FF4DBE8
:103C2000FF2000F03AF9FC2000F037F9FF2000F007
:103C300034F9FF2000F031F9BDE8F08170B5044699
:103C40000D461646EE2000F028F9B12000F025F9C7
:103C5000522000F022F9200A00F01FF9E0B200F033
:103C60001CF9280A00F019F9E8B200F016F93046FC
:103C7000FDF714FFFF2000F010F9FC2000F00DF913
:103C8000FF2000F00AF9FF2000F007F970BD70B5C1
:103C900004460D46EE2000F000F9B12000F0FDF8DA
:103CA000532000F0FAF8200A00F0F7F8E0B200F034
:103CB000F4F8280A00F0F1F8E8B200F0EEF8FF207E
:103CC00000F0EBF8FC2000F0E8F8FF2000F0E5F849
:103CD000FF2000F0E2F870BD70B504460D461646B0
:103CE000EE2000F0DAF8B12000F0D7F8542000F010
:103CF000D4F8200A00F0D1F8E0B200F0CEF8280A9B
:103D000000F0CBF8E8B200F0C8F8300A00F0C5F8CF
:103D1000F0B200F0C2F8FF2000F0BFF8FC2000F085
:103D2000BCF8FF2000F0B9F8FF2000F0B6F870BD35
:103D300070B504460D46EE2000F0AFF8B12000F05B
:103D4000ACF8552000F0A9F8200A00F0A6F8E0B27F
:103D500000F0A3F8280A00F0A0F8E8B200F09DF8FF
:103D6000FF2000F09AF8FC2000F097F8FF2000F008
:103D700094F8FF2000F091F870BD10B5EE2000F02F
:103D80008CF8822000F089F8FF2000F086F8FC20F3
:103D900000F083F8FF2000F080F8FF2000F07DF8AD
:103DA00010BD70B504460025EE2000F076F844B151
:103DB00000BF04E0605D00F070F8681CC5B2132D10
:103DC000F8DBFF2000F069F8FC2000F066F8FF2027
:103DD00000F063F8FF2000F060F870BD00BF70478E
:103DE00000BF404A128802F04002002AF9D0C2B255
:103DF0003C4B9A80704710B588B0044601210846B4
:103E000000F0BAFD0121102000F010FE0722092168
:103E1000354800F09EFB07220A21334800F099FB49
:103E20004FF4C060069002208DF81C008DF81D0034
:103E300000208DF81E0001208DF81F0006A92A48D9
:103E400000F0FCFA02940020ADF80C00ADF80E0072
:103E5000ADF81000ADF814000C20ADF8120002A966
:103E6000204800F044FF01211E4800F0C8FF012255
:103E700040F225511B4801F078F825208DF8040008
:103E800003208DF805008DF8060001208DF807004D
:103E900001A800F0DAF808B010BD10B504462146BC
:103EA000104800F0D7FF00BF80210E4801F082F8D3
:103EB0000028F9D000BF40210A4801F07BF8002813
:103EC000F9D010BD10B540F22551064801F088F830
:103ED00038B1044800F0C2FFC4B22046FDF751FDDE
:103EE00000BF10BD00100140000002407FB5044635
:103EF0000D460121080400F099FDA8B2ADF80400B8
:103F000002940020ADF80600ADF80C0001A91A4893
:103F100001F05DF90121184801F022FE012211464D
:103F2000154801F0F5FD18208DF8000003208DF8EC
:103F300001008DF8020001208DF80300684600F0B2
:103F400084F808210C4801F06DFB01210A4801F0BA
:103F5000A9F90021084801F0C3F97FBD10B501217E
:103F6000054801F0ECFD012805D104490870012144
:103F7000014801F0E1FD10BD004001407800002043
:103F80001B4A116808E00A22B0FBF2F2184B1B68CA
:103F90005B1A9A4200D200E0F5E700BF704770B5A7
:103FA0006FF0040000F09EF81249481EB0F1807FC7
:103FB00000D31BE0481E4FF0E022506150170F2243
:103FC000002807DA13071D0E0B4B00F00F04241F07
:103FD0001D5503E013071C0E084B1C5400BF0020A6
:103FE0004FF0E02290610720106100BF70BD00001B
:103FF0002000002080A2190018ED00E000E400E09D
:104000000948804709480047FEE7FEE7FEE7FEE76C
:10401000FEE7FEE7FEE7FEE7FEE7FEE704480549A8
:10402000054A064B70470000511500088901000839
:10403000380300203809002038050020380500200A
:1040400032490143324A1160704770B500210023A4
:104050000F22C4781CB32E4C246804F4E064C4F529
:10406000E064C4F30721C1F10404E3B20A414478D7
:104070009C40E1B28478144021430C07210E254C6A
:1040800005786155047804F01F050124AC400578DB
:104090006D11AD0005F1E025C5F8004109E0047897
:1040A00004F01F050124AC401B4D0678761145F83D
:1040B000264070BD194A0A400243154B1B1F1A6067
:1040C000704739B1124A121D12680243104B1B1D72
:1040D0001A6006E00E4A121D126882430C4B1B1D2B
:1040E0001A607047042808D14FF0E021096941F0B7
:1040F00004014FF0E022116107E04FF0E02109696F
:1041000021F004014FF0E022116170470000FA0530
:104110000CED00E000E400E080E100E080FFFF1F24
:1041200010B50121480700F0C5FC00214FF00050F8
:1041300000F0C0FC10BD30B5002200237B4C22688B
:1041400040F6FE748440A243D1E900452C438D68BB
:104150002C43CD6844EA050303FA00F42243734C70
:10416000226030BD0021016041608160C160704704
:1041700039B16E4A1268012383401A436B4B1A60AF
:1041800006E06A4A1268012383409A43674B1A602B
:10419000704710B551B1654A121D12680409012318
:1041A000A3401A43614B1B1D1A6009E05F4A121DB0
:1041B000126804090123A3409A435C4B1B1D1A603B
:1041C00010BD40B15949091D096841F00301574A22
:1041D000121D116007E05549091D096821F003010E
:1041E000524A121D1160704710B53AB14F4B1B680F
:1041F00001FA00F423434D4C236006E04B4B1B684F
:1042000001FA00F4A343494C236010BD08B5002215
:104210000092464A009200F10802009B1A44009264
:10422000009A116008BD08B5002200923F4A009232
:1042300000F11402009B1A440092009A116008BD1C
:1042400030B500240023082802D142EA012401E00D
:1042500042EA0144354B00F120052B441C6030BD7F
:1042600008B5014600200090304800902C2000EB5B
:104270009100009A104400900098006880B208BD38
:1042800041B12A4A12684FF4805383401A43274BA6
:104290001A6007E0254A12684FF4805383409A431E
:1042A000224B1A60704710B53AB1204B1B6801FAD7
:1042B00000F423431D4C236006E01C4B1B6801FAED
:1042C00000F4A343194C236010BD10B50246002032
:1042D000164B34331B6801FA02F423400BB1012062
:1042E00000E0002010BD01FA00F2104B34331A60D8
:1042F000704730B50246002000230C4C246801FAB8
:1043000002F504EA0503094C3434246801FA02F585
:104310002C4014B10BB1012000E0002030BD01FAA7
:1043200000F2024B34331A60704700000074004002
:1043300010B504469848844208D10121084600F08F
:1043400086FB0021012000F082FB76E09348844246
:1043500008D10121022000F07AFB0021022000F0A8
:1043600076FB6AE08E48844208D10121042000F0E7
:104370006EFB0021042000F06AFB5EE08948844265
:1043800008D10121082000F062FB0021082000F084
:104390005EFB52E08448844208D10121102000F0E5
:1043A00056FB0021102000F052FB46E07F4884427B
:1043B00008D10121202000F04AFB0021202000F03C
:1043C00046FB3AE07A48844208D10121402000F0BF
:1043D0003EFB0021402000F03AFB2EE0754884426D
:1043E00008D10121802000F032FB0021802000F064
:1043F0002EFB22E07048844208D10121801500F094
:1044000026FB0021A01500F022FB16E06B48844239
:1044100008D10121401500F01AFB0021601500F0C1
:1044200016FB0AE06648844207D10121001500F01E
:104430000EFB0021201500F00AFB10BDF0B50A4666
:1044400000210023002400BF3DE0012505FA01F30F
:10445000156805EA03049C4234D105684F00032621
:10446000BE40B543056015794E00B540066835433A
:1044700005601579012D02D01579022D16D18568B8
:104480004F000326BE40B543856055794E00B540C8
:10449000866835438560456801268E40B543456092
:1044A000456896798E40B6B235434560C5684F0081
:1044B0000326BE40B543C560D5794E00B540C668F9
:1044C0003543C560491C1029BFD3F0BD4FF6FF71BD
:1044D00001600021017141718171C171704708B59E
:1044E0004FF480320092009A0A430092009AC2610F
:1044F000C161009AC261C2690092C269009208BD9E
:104500000246002013690B400BB1012000E000209F
:1045100070470146086980B270470246002053691F
:104520000B400BB1012000E00020704701464869B4
:1045300080B2704701837047418370470AB101839D
:1045400000E0418370474161704742694A404261DF
:104550007047F0B5002300244D07ED0E02FA05F375
:10456000CE1000F1200555F826504E07F70E0F2605
:10457000BE40B543CF1000F1200646F82750CE10BC
:1045800000F1200555F8265045EA0304CE1000F14D
:10459000200545F82640F0BD00000240000402401E
:1045A00000080240000C02400010024000140240CB
:1045B00000180240001C024000200240002402407B
:1045C00000280240F948006840F00100F7490860FF
:1045D0000020F64908310860F4480068F4490840B2
:1045E000F2490860F348091D0860F348EF49843137
:1045F0000860F0481038091D0860EC48006820F495
:104600008020EA4908600020E8490C310860E74949
:104610008C31086070470021E44A921C11701146E9
:104620000870704710B501460022002300204A118F
:10463000012A02D1DD4C236808E0022A03D1DB4CB9
:104640007034236802E0D94C7434236801F01F02EF
:10465000012494401C400CB1012000E0002010BD5A
:1046600038B5002000900024002500BF3120FFF75E
:10467000D9FF05460098401C00900098B0F5A04F67
:1046800001D0002DF2D03120FFF7CCFF08B101247A
:1046900000E00024204638BD01460020C34A1068CF
:1046A00020F0F80040EAC10010607047C34908607C
:1046B00070470021BD4A703211701170012802D07C
:1046C00004280AD104E00121B84A7032117005E0D3
:1046D0000521B64A7032117000E000BF00BF70477C
:1046E000B7490860704770B5049C41EA82150126FD
:1046F000C6EB530645EA0645054345EA0465AB4E5D
:10470000361D356070BDAD4908667047820142EACA
:104710000172A64B84331A607047A84988667047B7
:1047200010B5830143EA016343EA02739F4C883466
:10473000236010BDA14908677047A049C86470474D
:1047400002460020994B0833186820F0EC6042EADA
:1047500001031843954B0833186070470246002048
:10476000924B0833186820F0784042EA010318435E
:104770008E4B083318607047014600208B4A083280
:10478000106820F003000843106070478748083025
:10479000006800F00C00704701460020834A083290
:1047A000106820F0F00008431060704701460020B8
:1047B0007E4A0832106820F4E050084310607047C9
:1047C00001460020794A0832106820F4604040EA2F
:1047D000C10010607047F0B50021002200240225BE
:1047E00000260223714F08373F6807F00C0121B102
:1047F000042905D0082937D105E0724F076036E05B
:10480000714F076033E0694F3F1D3F68C7F3805623
:10481000664F3F1D3F6807F03F036EB16A4FB7FB1D
:10482000F3F7DFF888C10CF1040CDCF800C0CCF31E
:10483000881C07FB0CF40CE0624FB7FBF3F7DFF8C2
:104840006CC10CF1040CDCF800C0CCF3881C07FB35
:104850000CF4564F3F1D3F68C7F301477F1C7D0096
:10486000B4FBF5F7076002E0564F076000BF00BFDA
:104870004E4F08373F6807F0F0010909534F7A5C43
:104880000768D7404760494F08373F6807F4E05151
:10489000890A4E4F7A5C4768D7408760434F083794
:1048A0003F6807F46041490B484F7A5C4768D7403E
:1048B000C760F0BD002100F44072B2F5407F0AD11C
:1048C0003A4A0832116821F4F811414A0240114372
:1048D000364A08321160354A70321268C0F30B0351
:1048E0001A43324B70331A607047354944390860B7
:1048F000704733494039086070473649086070474F
:1049000001460020294A8C32106820F01F004A1E00
:104910001043264A8C321060704701460020234A1B
:104920008C32106820F4F8504A1E40EA02201F4AD8
:104930008C3210607047014600201C4A8C3210688F
:1049400020F4401008431060704701460020174AC9
:104950008C32106820F44000084310607047014614
:104960000020124A8C32106820F440300843106056
:10497000704719490860704739B10C4A30321268E3
:1049800002430A4B30331A6006E0084A303212689C
:104990008243064B30331A607047F9B1034A343210
:1049A00012680243014B34331A601CE000380240A5
:1049B000FFFFF6EA103000240030002000004742DC
:1049C000800E47420024F40000127A00820000208A
:1049D000FFFCFF0F5C014742E01147428F4A12681B
:1049E00082438E4B1A60704739B18C4A121D12688F
:1049F00002438A4B1B1D1A6006E0884A121D12688A
:104A00008243864B1B1D1A60704739B1834A0C32B2
:104A100012680243814B0C331A6006E07F4A0C3265
:104A2000126882437D4B0C331A60704739B17B4A60
:104A3000103212680243794B10331A6006E0774A4D
:104A4000103212688243754B10331A60704739B1C7
:104A5000724A243A12680243704B243B1A6006E003
:104A60006E4A243A126882436C4B243B1A607047AA
:104A700039B16A4A203A12680243684B203B1A60F7
:104A800006E0664A203A12688243644B203B1A6073
:104A9000704739B1614A1C3A126802435F4B1C3BB4
:104AA0001A6006E05D4A1C3A126882435B4B1C3B6D
:104AB0001A60704739B1594A143A12680243574B89
:104AC000143B1A6006E0554A143A12688243534B6D
:104AD000143B1A60704739B1504A103A12680243C9
:104AE0004E4B103B1A6006E04C4A103A1268824363
:104AF0004A4B103B1A60704739B1484A1C32126861
:104B00000243464B1C331A6006E0444A1C321268CA
:104B10008243424B1C331A60704739B13F4A2032FE
:104B2000126802433D4B20331A6006E03B4A2032B4
:104B300012688243394B20331A60704739B1374AC3
:104B4000243212680243354B24331A6006E0334A9C
:104B5000243212688243314B24331A60704739B1D2
:104B60002E4A2C32126802432C4B2C331A6006E07A
:104B70002A4A2C3212688243284B2C331A60704721
:104B800039B1264A303212680243244B30331A605E
:104B900006E0224A303212688243204B30331A60DA
:104BA0007047012808D11D493C31096841F00801CE
:104BB0001A4A3C32116007E018493C31096821F07B
:104BC0000801164A3C321160704739B1134A273A3E
:104BD00012780243114B273B1A7006E00F4A273A1E
:104BE000127882430D4B273B1A7070470B484030B8
:104BF000006840F080700949403108607047014604
:104C00000020064A283A12680A400AB1012000E052
:104C10000020704701492639087070473438024037
:104C200010B50446FA48844208D101211020FFF74C
:104C300052FF00211020FFF74EFF57E0F548844255
:104C400009D101214804FFF735FF00214FF400305E
:104C5000FFF730FF4AE0F048844209D1012188047F
:104C6000FFF728FF00214FF48020FFF723FF3DE0EE
:104C7000EA48844209D10121C804FFF71BFF002143
:104C80004FF40020FFF716FF30E0E548844209D1D9
:104C900001210805FFF70EFF00214FF48010FFF7F8
:104CA00009FF23E0DF48844208D101212020FFF7DB
:104CB00012FF00212020FFF70EFF17E0DA488442A0
:104CC00009D101218807FFF7F5FE00214FF0804050
:104CD000FFF7F0FE0AE0D548844207D101214005E4
:104CE000FFF7E8FE00216005FFF7E4FE10BD2DE9A7
:104CF000FF4705460E460024A14600BFA046B089E6
:104D000000B100BF2C8A24F44054F08804432C8264
:104D1000AC8941F20C608443B088318908437189C1
:104D200008430443AC81AC8A24F44074B089044342
:104D3000AC826846FFF74FFDB548854202D0B948BE
:104D4000854202D1DDF80C9001E0DDF80890A889D9
:104D500000F4004040B109EBC90000EB09103168D4
:104D60004900B0FBF1F707E009EBC90000EB0910BF
:104D700031688900B0FBF1F76420B7FBF0F0040163
:104D80002009642101FB1078A88900F4004040B19B
:104D9000322000EBC800B0FBF1F000F00700044344
:104DA00008E0322000EB08106421B0FBF1F000F0C5
:104DB0000F0004432C81BDE8FF874FF416510160BA
:104DC00000218180C18001810C21418100218181EC
:104DD000704710B502460020108A20F470600B88DE
:104DE0004C8823438C882343CC8823431843108268
:104DF00010BD0021018041808180C180704721B1B8
:104E0000828942F40052828104E082894DF6FF7368
:104E10001A4082817047028B02F47F420283028B28
:104E20000A430283704721B1828942F400428281A1
:104E300003E08289C2F30E028281704721B1828A27
:104E400042F40062828204E0828A4FF2FF731A40C9
:104E500082827047C1F308028280704701468888C9
:104E6000C0F308007047028A4FF6F0731A400282BE
:104E7000028A0A430282704721B1828942F002020B
:104E8000828104E082894FF6FD731A408281704767
:104E900082894FF2FF731A40828182890A4382819C
:104EA0007047028A4FF6DF731A400282028A0A4371
:104EB0000282704721B1028A42F48042028204E0F9
:104EC000028A4BF6FF731A4002827047818941F0D3
:104ED00001018181704721B1828A42F008028282F9
:104EE00004E0828A4FF6F7731A4082827047028B81
:104EF000D2B20283028B42EA01220283704721B1BF
:104F0000828A42F02002828204E0828A4FF6DF73B6
:104F10001A408282704721B1828A42F01002828256
:104F200004E0828A4FF6EF731A4082827047828AC9
:104F30004FF6FB731A408282828A0A43828270474C
:104F400021B1828A42F00202828204E0828A4FF614
:104F5000FD731A40828270471AB1838A0B438382A1
:104F600002E0838A8B4383827047F0B503460024B6
:104F700000260025002040F66A17B94200D100BF84
:104F80001846C1F3421401F01F06012707FA06F57F
:104F9000012C01D10C3004E0022C01D1103000E0D2
:104FA00014301AB107682F43076002E00768AF4367
:104FB0000760F0BD02460020B1F5007F00D100BFC0
:104FC00013880B400BB1012000E00020704701F472
:104FD0000072B2F5007F00D100BFCA430280704763
:104FE00070B50246002400230025002040F66A1612
:104FF000B14200D100BFC1F3421501F01F030126E9
:1050000006FA03F3012D13D19689334017E000000F
:10501000001001400044004000480040004C0040A7
:10502000005000400014014000780040007C004027
:10503000022D02D1168A334001E0968A33400C12C9
:10504000012606FA04F41688344013B10CB101208D
:1050500000E0002070BD10B50022002340F66A1465
:10506000A14200D100BF0A1201249440A3B2DC4344
:10507000048010BD10B50446FE48844208D10121C9
:105080000846FFF728FD00210120FFF724FD9DE0E1
:10509000B4F1804F08D101210846FFF70BFD002134
:1050A0000120FFF707FD91E0F348844208D1012178
:1050B0000220FFF7FFFC00210220FFF7FBFC85E048
:1050C000EE48844208D101210420FFF7F3FC0021BF
:1050D0000420FFF7EFFC79E0E948844208D1012180
:1050E0000820FFF7E7FC00210820FFF7E3FC6DE054
:1050F000E448844208D101211020FFF7DBFC0021A5
:105100001020FFF7D7FC61E0DF48844208D101217D
:105110002020FFF7CFFC00212020FFF7CBFC55E03B
:10512000DA48844208D101210220FFF7D4FC002193
:105130000220FFF7D0FC49E0D548844209D1012183
:105140000804FFF7C8FC00214FF48030FFF7C3FCD0
:105150003CE0D048844209D101214804FFF7BBFC60
:1051600000214FF40030FFF7B6FC2FE0CA4884421C
:1051700009D101218804FFF7AEFC00214FF4802003
:10518000FFF7A9FC22E0C548844208D10121402054
:10519000FFF790FC00214020FFF78CFC16E0C04890
:1051A000844208D101218020FFF784FC0021802067
:1051B000FFF780FC0AE0BB48844207D1012180153B
:1051C000FFF778FC0021A015FFF774FC10BD00224A
:1051D0000288A84B98420ED0AC4B98420BD0B0F14D
:1051E000804F08D0A44B984205D0A44B984202D0DF
:1051F000A34B984204D14FF68F731A404B881A4341
:10520000A04B984207D0A04B984204D04FF6FF43E2
:105210001A400B891A4302804B68C3620B880385CE
:10522000944B984202D0994B984201D18B7A0386D5
:105230000123838270474FF0FF31416000210180DC
:1052400001814180817270470185828270470A46E0
:10525000002101884FF68F73194011430180704778
:1052600041627047C16270470146486A7047014613
:10527000088D704721B1028842F00202028004E0EA
:1052800002884FF6FD731A400280704721B10288F0
:1052900042F00402028004E002884FF6FB731A40D9
:1052A0000280704721B1028842F08002028004E04F
:1052B00002884FF67F731A400280704702884FF6CB
:1052C000F7731A40028002880A43028070470288FE
:1052D0004FF6FF431A40028002880A43028070475B
:1052E00021B1028842F00102028004E002884FF6F8
:1052F000FE731A400280704770B50024002200231C
:10530000058C4FF6FE7635400584028C8388048B2D
:105310004FF68F752C40B51E2C400D882C43751E02
:105320002A408D892A434D882A43524DA84202D0F3
:10533000564DA84213D14FF6F7752A40CD892A431E
:105340004FF6FB752A408D882A434FF6FF652B40A8
:105350004FF6FF552B400D8A2B434D8A2B438380FC
:1053600004838D684563028470BD70B500240022FB
:105370000023058C4FF6EF7635400584028C838838
:10538000048B48F6FF752C404FF6FF452C400D88E6
:105390004FF6FF7606EA05252C434FF6DF752A40C7
:1053A0008D8906EA05152A434D8806EA05152A4324
:1053B000304DA84202D0354DA8421DD14FF67F7521
:1053C0002A40CD894FF6FF7606EA05152A434FF6A7
:1053D000BF752A408D8806EA05152A434FF6FF352A
:1053E0002B404FF2FF752B400D8A06EA85052B43B3
:1053F0004D8A06EA85052B43838004838D68856387
:10540000028470BD70B5002400220023058C4FF685
:10541000FF6635400584028C8388848B4FF68F7538
:105420002C404FF6FC752C400D882C434FF6FF5551
:105430002A408D894FF6FF7606EA05252A434D88D6
:1054400006EA05252A430B4DA84202D00F4DA8427B
:1054500038D14FF2FF752A40CD894FF6FF7606EA24
:1054600005252A434FF6FF352A408D8806EA052593
:105470002A4319E0000001400004004000080040F9
:10548000000C0040001000400014004000040140E7
:105490000040014000440140004801400018004025
:1054A000001C0040002000404EF6FF752B404DF6DA
:1054B000FF752B400D8A06EA05152B434D8A06EA37
:1054C00005152B43838084838D68C563028470BD7A
:1054D00070B5002200230024058C4EF6FF7635407F
:1054E0000584038C8488828B48F6FF752A404FF62A
:1054F000FF452A400D884FF6FF7606EA05252A4328
:105500004DF6FF752B408D8906EA05352B434D88F6
:1055100006EA05352B43FE4DA84202D0FD4DA842B8
:1055200008D14BF6FF752C400D8A4FF6FF7606EA40
:1055300085152C43848082838D680564038470BD47
:10554000002101804180818081608181C18101824F
:105550004182704770B50346002000241846183079
:1055600001258D40ACB21D8CA5431D8409B10829CD
:105570000AD100EB610005684FF68F763540056073
:105580000568154305600FE00D1FC5F34E0528445F
:10559000056848F6FF763540056005684FF6FF76EA
:1055A00006EA02263543056070BD4163704781639A
:1055B0007047C1637047016470470A460021018B40
:1055C0004FF68F7319401143018370470A4600213B
:1055D000018B48F6FF7319404FF6FF7303EA02236D
:1055E0001943018370470A460021818B4FF68F7360
:1055F00019401143818370470A460021818B48F688
:10560000FF7319404FF6FF7303EA022319438183A6
:1056100070470A460021018B4FF6F773194011437A
:10562000018370470A460021018B4FF2FF73194036
:105630004FF6FF7303EA02231943018370470A46BA
:105640000021818B4FF6F773194011438183704716
:105650000A460021818B4FF2FF7319404FF6FF730A
:1056600003EA02231943818370470A460021018B14
:105670004FF6FB7319401143018370470A4600211E
:10568000018B4FF6FF3319404FF6FF7303EA0223F5
:105690001943018370470A460021818B4FF6FB7343
:1056A00019401143818370470A460021818B4FF6D0
:1056B000FF3319404FF6FF7303EA02231943818336
:1056C00070470A460021018B4FF67F731940114342
:1056D000018370470A460021018BC1F30E014FF68A
:1056E000FF7303EA02231943018370470A4600212E
:1056F000818B4FF67F7319401143818370470A46AF
:105700000021818BC1F30E014FF6FF7303EA0223E0
:105710001943818370470A460021018C4FF6FD73BF
:1057200019401143018470470A460021018C4FF64D
:10573000F77319401143018470470A460021018C18
:105740004FF6DF7319404FF6FF7303EA0213194354
:10575000018470470A460021018C4FF67F7319407F
:105760004FF6FF7303EA02131943018470470A4698
:105770000021018C4FF6FF5319404FF6FF7303EAE7
:1057800002231943018470470A460021018C4FF21D
:10579000FF7319404FF6FF7303EA02231943018494
:1057A00070470A460021018C4DF6FF7319404FF6F1
:1057B000FF7303EA023319430184704730B50023B5
:1057C00001248C40A3B2048C9C430484048C02FA10
:1057D00001F5ADB22C43048430BD30B50023042460
:1057E0008C40A3B2048C9C430484048C02FA01F51F
:1057F000ADB22C43048430BD828B4FF2FF331A408C
:105800008283828B4FF6FF7303EA01231A4382835C
:105810007047F0B50C461546002100220026078C83
:105820004EF6FF7C07EA0C070784818B028C4FF64B
:10583000FF7707EA043640F6FF4739404FF6FF7717
:1058400007EA052739434FF6FF7707EA033739435D
:1058500045F6FF773A4046F480573A438183028405
:10586000F0BD828B4FF6F3731A408283828B0A431A
:1058700082837047F0B50C461546002100220026B1
:10588000078C4FF6FF6C07EA0C070784818B028CAC
:105890004FF6FF7707EA04264FF60C7739404FF6AC
:1058A000FF7707EA03172F4339434FF2FF573A4078
:1058B00046F480773A4381830284F0BD028B4FF235
:1058C000FF331A400283028B4FF6FF7303EA012372
:1058D0001A4302837047F0B50C461546002100229A
:1058E0000026078C4FF6EF7C07EA0C070784018B34
:1058F000028C4FF6FF7707EA041640F6FF4739405F
:105900004FF6FF7707EA033739434FF6FF7703E097
:10591000000001400004014007EA052739434FF623
:105920005F773A4046F010073A4301830284F0BDA6
:10593000028B4FF6F3731A400283028B0A430283F1
:105940007047F0B50C46154600210022068C4FF634
:10595000FE773E400684018B028C4FF60C76314078
:105960007E1C06EA03162E4331434FF6F57632408D
:1059700044F00106324301830284F0BD70B5054650
:105980000C46208850B92389A28861882846FFF7F1
:10599000D8FFE1882846FFF7CBFF25E020880428C0
:1059A0000AD12389A28861882846FFF794FFE188FD
:1059B0002846FFF783FF17E0208808280AD12389AB
:1059C000A28861882846FFF755FFE1882846FFF73F
:1059D00048FF09E02389A28861882846FFF719FF5C
:1059E000E1882846FFF708FF70BD00210180418053
:1059F000012181800021C180018170472DE9F041A2
:105A000005460C4600260127608808B9022600E0FA
:105A10000026A088012801D1022700E00127208864
:105A2000A0B92389A28861882846FFF78AFFE18808
:105A30002846FFF77DFF23893A4631462846FFF77F
:105A40004AFFE1882846FFF739FF13E02389A2883F
:105A500061882846FFF73FFFE1882846FFF72EFFC1
:105A600023893A4631462846FFF76BFFE1882846EE
:105A7000FFF75EFFBDE8F0810146486B70470146C5
:105A8000886B70470146C86B70470146086C7047C9
:105A90000A884B881A438B881A43CB881A430B8990
:105AA0001A434B891A438B891A43A0F84420704744
:105AB0000021018041808180C180018141818181FB
:105AC000704731B1B0F8442042F40042A0F84420BD
:105AD00005E0B0F84420C2F30E02A0F8442070475D
