:020000040800F2
:1000000040090020853F0008291400082B1400082F
:100010002F140008331400083714000800000000F3
:100020000000000000000000000000003B14000879
:100030003D140008000000003F14000841140008AF
:100040009F3F00089F3F00089F3F00089F3F000818
:100050009F3F00089F3F00089F3F00089F3F000808
:100060009F3F00089F3F00089F3F00089F3F0008F8
:100070009F3F00089F3F00089F3F00089F3F0008E8
:100080009F3F00089F3F00089F3F00089F3F0008D8
:100090009F3F00089F3F00089F3F00089F3F0008C8
:1000A0009F3F00089F3F00089F3F00089F3F0008B8
:1000B0009F3F0008DF3E00089F3F00089F3F000869
:1000C0009F3F00089F3F00089F3F00089F3F000898
:1000D0009F3F00084F3E00089F3F00089F3F0008D9
:1000E0009F3F00089F3F00089F3F00089F3F000878
:1000F0009F3F00089F3F00089F3F00089F3F000868
:100100009F3F00089F3F00089F3F00089F3F000857
:100110009F3F00089F3F00089F3F00089F3F000847
:100120009F3F00089F3F00089F3F00089F3F000837
:1001300000F002F800F048F80AA090E8000C8244B1
:100140008344AAF10107DA4501D100F03DF8AFF28E
:10015000090EBAE80F0013F0010F18BFFB1A43F0A5
:1001600001031847586D0000786D0000103A24BF55
:1001700078C878C1FAD8520724BF30C830C144BF0C
:1001800004680C607047000000230024002500264E
:10019000103A28BF78C1FBD8520728BF30C148BFEA
:1001A0000B607047632905F06686002070471FB515
:1001B00006F0AEF804000020002106F0EDF8401C27
:1001C00060601FBD10B510BD06F06AF81146FFF75C
:1001D000EEFF00F078FF06F091F803B4FFF7F2FFAE
:1001E00003BC03F0C5FD000010B58021F74804F002
:1001F0004AF840BB1021F64804F05FF80021F548AA
:1002000005F0C8F94FF48061F04804F03CF868B993
:100210004FF40071ED4804F050F84FF48071EE484F
:1002200004F04DF80020ED4908708CE04FF4805147
:10023000E64804F028F80028F7D14FF40071E348AD
:1002400004F03DF87FE01021E14804F038F84FF465
:100250000041E34804F017F820B90121DD4805F01A
:1002600099F903E00021DB4805F094F9DD480078B6
:1002700018B10821D64804F020F84FF48051D34833
:1002800004F001F800BBC82001F0C8FB4FF4805116
:10029000CE4803F0F8FF40B94FF40041D04803F0D6
:1002A000F2FF10B9CF48007810B9CE480078E8B115
:1002B0000120CA4908700821C54804F000F8002050
:1002C000C4492431088011E04FF48061BF4803F035
:1002D000DAFF58B9C82001F0A1FB4FF48061BB4898
:1002E00003F0D1FF10B90020BC490870BB4800786A
:1002F000012815D1BB48007828B3BB48007810B35B
:100300004FF48071B44803F0D8FF4FF40071AF4848
:1003100003F0D5FF0020B3490870B349087012E01C
:10032000AE48007878B90020AC4908704FF480716D
:10033000A94803F0C4FF4FF40071A44803F0BDFFC7
:100340000120A949087010BD10B501F086FA0446D5
:100350004FF40041A04803F096FF00284BD14FF422
:1003600000419F4803F08FFF002844D1022C04D0A5
:10037000032C16D0042C3CD127E04FF48071964812
:1003800003F09DFF4FF40071904803F098FF08219F
:100390008F4803F094FF954A0821042002F032FBB5
:1003A00028E04FF480718C4803F087FF4FF4007110
:1003B000864803F084FF0821854803F080FF8C4ABB
:1003C0000821042002F01EFB14E04FF480718248E3
:1003D00003F073FF4FF400717C4803F070FF0821B5
:1003E0007B4803F06CFF834A0821042002F00AFBDB
:1003F00000E000BF97E04FF40041774803F043FF6F
:100400000128F7D1C103764803F03DFF0028F1D160
:1004100080216E4803F037FFE0BB022C02D0032C92
:1004200039D11BE04FF480716B4803F048FF4FF463
:100430000071664803F043FF0821654803F03DFF63
:100440001021634803F03BFF1021614803F037FFA0
:10045000694A0821042002F0D5FA1DE04FF48071AA
:100460005D4803F02AFF4FF40071584803F025FF60
:100470000821574803F021FF1021554803F01FFFC2
:100480001021534803F01BFF5B4A0821042002F0AF
:10049000B9FA01E002E000BF00BF10BD022C04D099
:1004A000032C16D0042C3CD127E04FF480714A482D
:1004B00003F005FF4FF40071444803F000FF0821EA
:1004C000434803F0FAFE494A0821042002F09AFA50
:1004D00028E04FF48071404803F0EFFE4FF40071C4
:1004E0003A4803F0ECFE0821394803F0E6FE404AA2
:1004F0000821042002F086FA14E04FF48071364897
:1005000003F0DDFE4FF40071304803F0D6FE082101
:100510002F4803F0D2FE384A0821042002F072FA74
:1005200000E000BF00BF00BFB7E730B5C1B033483F
:10053000008804282CD132493248006806F0B4FA09
:100540000546314906F0EEF9044601200223224611
:1005500005210090042002F0C4FA29492B480068C4
:1005600006F0A2FA0546284906F0DCF90446012007
:100570000223224606210090042002F0B2FA012054
:1005800002230090224802680721042002F0A9FA01
:100590001A48008806285AD11E480068F0BB1E4839
:1005A00001210268062002F016FB1B480068401C6F
:1005B0001949086008460068B0F5827F47DB4FF4B0
:1005C0008270086001201349086040E0001001407B
:1005D00000140140000400400008014063000020B6
:1005E000000C014078000020620000200000002084
:1005F00005000020170000200E0000203000002021
:10060000D7A380402400002000007A442800002066
:100610002C0000204000002038000020FFE7FB48AD
:100620000068012813D1FA48008882B2012106200F
:1006300002F005FBF6480068401EF54908600846D0
:100640000068002803DC00200860F0490860F148D9
:1006500000880A2879D1F04800686421B0FBF1F2E3
:1006600001FB1200A8B9ED48006890B900220521ED
:100670000A2002F09EF9012202210A2002F099F9D3
:10068000002201210A2002F0F7FB0120E349086063
:100690005BE0E14800686421B0FBF1F201FB12006D
:1006A000B0B9DE480068012812D1002202210A20D8
:1006B00002F07FF9012203210A2002F07AF90122D7
:1006C00011460A2002F0D8FB0220D44908603CE021
:1006D000D14800686421B0FBF1F201FB1200B0B90F
:1006E000CE480068022812D1002203210A2002F01D
:1006F00060F9012204210A2002F05BF902220121A3
:100700000A2002F0B9FB0320C44908601DE0C2487A
:1007100000686421B0FBF1F201FB1200A8B9BF48E8
:100720000068032811D1002204210A2002F041F9B7
:10073000012205210A2002F03CF9032201210A20AE
:1007400002F09AFB0020B5490860B24800880B28E7
:100750003FD1B3480068E0B94FF48072B14901A8B5
:1007600005F02CFB0220009001A8AF49096843184E
:10077000002201210B2002F04DFCAB480068801CD8
:10078000A949086008460068FF2801DB00200860CE
:100790001FE0A348006801281BD1B422A34914A874
:1007A00005F00CFB0220009014A89F49096843182B
:1007B000002201210B2002F02DFC9B480068801CC8
:1007C0009949086008460068B42801DB00200860E9
:1007D00000BF90480088102844D18F4800686421E9
:1007E000B0FBF1F201FB1200E0BB8D480068D0B90C
:1007F0004FF480728B4901A805F0E0FA01A88A49FC
:100800000968421801231946102002F094FF864817
:100810000068401C8449086008460068FF2801DB26
:10082000002008601EE07E48006801281AD1B4222A
:100830007E49B43114A805F0C1FA14A87A490968B0
:10084000421801231946102002F075FF764800680F
:10085000401C75490860084600685A2801DB0020E2
:10086000086000BF41B030BD10B501220221032055
:1008700002F09FF810BD70B505460C46082D04D156
:10088000072C02D1642001F0E1FD70BD0D2803D1D9
:10089000012901D1664B1A700D2803D1022901D11B
:1008A000644B1A707047704770477CB505460E461A
:1008B000144600200190072D1CD1022E1AD1642C61
:1008C00000D3BCB122460121072002F050F90120DB
:1008D0000023224603210090072002F0BCF8FF20ED
:1008E000A0EB440254A101A805F032F99DF80400E0
:1008F00001F094FD072D11D1052E0FD1642C00D3EA
:1009000064B122460421072002F031F901200023BE
:10091000224606210090072002F09DF87CBDF8B524
:1009200004460E461546052C0AD1444805600120B0
:1009300000230090414802210268052002F08BF854
:10094000F8BD2DE9FC4104460D461646042C29D17C
:100950000020019001AA3AA1304605F06BF9022D62
:100960001FD10198002802DA0020019006E00198CA
:10097000B0F5BE7F02DD4FF4BE7001900120002370
:10098000009002210420019A02F065F80120019FE5
:10099000009007EBD770421001230521042002F0DC
:1009A0005AF800BFBDE8FC81F8B505460C4616466E
:1009B000032D7AD1012E79D10A2C78D2DFE804F008
:1009C00085050B111648576678804FF480711D48D5
:1009D00003F073FC7AE04FF400711B4803F06DFCE8
:1009E00074E00821194803F068FC6FE04FF480714F
:1009F000144803F062FC4FF40071134803F05DFCEF
:100A00000821124803F059FC60E00000400000207B
:100A1000380000203000002020000020540000207A
:100A20004C000020B06D000844000020486C000815
:100A30005800002059000020256300005C000020C1
:100A4000256C6400000801400010014000140140C2
:100A50004FF48071FE4803F030FC4FF40071FD4804
:100A600003F02DFC0821FC4803F029FC2EE04FF494
:100A70008071F74803F023FC4FF40071F54803F050
:100A80001CFC0821F44803F01AFC1FE04FF48071AD
:100A9000EF4803F014FC4FF40071EE4803F00FFC34
:100AA0000821ED4803F009FC10E048E00FE00CE0FD
:100AB0001021E94803F001FC0120E849087005E035
:100AC0001021E54803F0F9FB00E000BF37E00A2CF5
:100AD00033D2DFE804F032050B1116323232252D05
:100AE0004FF48071DA4803F0EAFB27E04FF400711D
:100AF000D84803F0E4FB21E00821D74803F0DFFBEE
:100B00001CE04FF48071D24803F0D9FB4FF4007120
:100B1000D04803F0D4FB0821CF4803F0D0FB0DE010
:100B20001021CD4803F0C9FB0020CC49087005E036
:100B30001021C94803F0C3FB00E000BF00BF0B2D2C
:100B40000AD1022C03D10020C549086004E0032C1F
:100B500002D10120C2490860082D05D1082C03D11B
:100B6000012E01D103F0D3F80D2D3CD1042C3AD144
:100B7000BC480078062805DC002203210D2002F085
:100B8000BEF828E0B7480078072809DBB5480078A8
:100B90000C2805DC012203210D2002F0B0F81AE038
:100BA000B04800780D2809DBAE480078122805DC33
:100BB000022203210D2002F0A2F80CE0A9480078DF
:100BC000122808DDA7480078172804DC0322114604
:100BD0000D2002F094F8A3480078A3490870A348B8
:100BE0000078A34908700D2D0DD1052C0BD19E481E
:100BF000027801210D2002F082F89D48027802213E
:100C00000D2002F07CF8052D38D1032C1AD199481B
:100C10000068401E9749086008460068002801DC0B
:100C200000200860934801210268052001F09FFF21
:100C30000120002300908F4802210268052001F066
:100C40000AFF1BE0042C19D18A480068401C89491E
:100C5000086008460068642801DB64200860854855
:100C600001210268052001F082FF0120002300908D
:100C7000804802210268052001F0EDFEF8BD1FB595
:100C800004467D480480032C03D101207B49087071
:100C900002E000207949087077480088092803D1CC
:100CA000012102F07AF870E073480088052803D12A
:100CB000012102F04DF868E06F4800880E2809D144
:100CC0006FA30FCB8DE80F006A4601210E2001F0C3
:100CD00099FE5AE0684800880F2845D100231A463B
:100CE000012102F0F7FE0023012211460F2002F03D
:100CF000F1FE0023022201210F2002F0EBFE00236F
:100D0000032201210F2002F0E5FE0023042201212D
:100D10000F2002F0DFFE0023052201210F2002F048
:100D2000D9FE0023062201210F2002F0D3FE00236A
:100D3000072201210F2002F0CDFE4FF4FA6003F0EC
:100D4000E1F800231A4601210F2002F002FF0023E0
:100D5000012211460F2002F0FCFE00230222012195
:100D60000F2002F0F6FE10E04348008811280CD155
:100D7000474903C9CDE9020101220321112001F0F5
:100D800018FE02A802F0D7FF00BF1FBD2DE9F04FEB
:100D900087B005460E4617469846DDE911ABDDF8EB
:100DA00040900BF00F00CBF3071101EB810100EB3A
:100DB00041003849086005F00F00C5F3071101EB49
:100DC000810100EB4100069006F00F00C6F3071109
:100DD00001EB810100EB4100059007F00F00C7F324
:100DE000071101EB810100EB410408F00F00C8F38B
:100DF000071101EB810100EB4100049009F00F00A5
:100E0000C9F3071101EB810100EB410003900AF0E7
:100E10000F00CAF3071101EB810100EB41000290C2
:100E200001200346009001460820069A01F013FEB7
:100E300001200346009002210820059A01F00BFED4
:100E400001200346009003210820049A24E00000BA
:100E50000008014000100140001401406100002022
:100E60004C000020580000205A00002059000020AB
:100E70005B0000205C0000203000002060000020AB
:100E80007777772E677A2D64632E636F6D0000008D
:100E9000406C00084800002001F0DDFD0120034601
:100EA000009004210820039A01F0D5FD012003469B
:100EB000009005210820029A01F0CDFD0120034693
:100EC0000090FE4806210268082001F0C4FD2CB9FC
:100ED000FBA20721082001F095FD2EE0012C05D191
:100EE000F9A20721082001F08DFD26E0022C05D192
:100EF000F7A20721082001F085FD1EE0032C05D193
:100F0000F5A20721082001F07DFD16E0042C05D193
:100F1000F3A20721082001F075FD0EE0052C05D194
:100F2000F1A20721082001F06DFD06E0062C04D196
:100F3000EFA20721082001F065FD07B0BDE8F08FA2
:100F40007047704770472DE9FE4F04460D4666789E
:100F5000A77894F807802079E17840EA0129A07900
:100F6000617940EA012A207A0106607A41EA00416B
:100F7000A07A41EA0020E17A40EA010B0D2E2CD044
:100F800008DC012E0FD0032E0ED00B2E29D00C2EF4
:100F90006FD11EE00F2E2CD0552E6BD0B12E43D02A
:100FA000F72EF5D12BE000BFD34B5B79DFF848C3B8
:100FB0009CF804C043EA0C22CF4BDB78DFF838C33F
:100FC0009CF802C043EA0C21CB4B5878FFF7BAFFDC
:100FD00076E00120FFF7B5FF72E00020FFF7B1FFD8
:100FE0006EE0A81F82B2C449891C0120FFF7A8FF48
:100FF00066E0002211461046FFF7A2FF60E0BE48FF
:10100000017AC079BC4A9279DFF8ECC2CDE90020C0
:1010100002919CF805309CF804209CF803109CF881
:101020000200FFF7B3FE4BE0012F03D14846FFF764
:1010300026FE40E0A8F110000C283AD2DFE800F0CC
:10104000060C131B213939343939272E627A51465F
:101050004846FFF7A9FC2DE004F108025146484636
:10106000FFF76FFC26E05A4651464846FFF757FC0B
:1010700020E024E020E05A4651464846FFF715FCA0
:1010800018E05A4651464846FFF70EFC12E0637AD4
:10109000227A51464846FFF706FC0BE0227A514679
:1010A0004846FFF7F3FB05E051464846FFF7E3FBF0
:1010B00000E000BF00BF03E0FFF7D6FB00E000BF89
:1010C00000BFBDE8FE8F002500244FF4A06002F0B1
:1010D00079FF02F026FF4FF4964002F057FE41F6EA
:1010E0001F414CF24F3002F0C7FE00F0ADFB00F0A4
:1010F0009FFA00F009FC4FF4967002F003FF87E1BD
:101100007E48007860B97E48007848B901217D4862
:1011100003F0B9F810B1FFF767F801E0FFF714F931
:101120004021754800F036FC0546002D08DD724868
:101130004078072804D029466F48FFF704FF15E0E0
:10114000002D13DD6C48407807280FD171B600BF21
:101150006D48006800F4E0606C490843001D6A496E
:101160000860BFF3408F00BF00BFFEE7684800681B
:101170004FF49671B0FBF1F201FB12000028BED1D2
:10118000634800680028BAD0032094FBF0F100FB0C
:10119000114020B101280CD002281ED113E05D4877
:1011A0005D4908605D485E4908605E485E490860C8
:1011B00014E05E48584908605D48594908605D4838
:1011C000594908600AE05C48534908605B48544943
:1011D00008605B485449086000E000BF00BFFFF7AB
:1011E000A4F94D48006800F062FA4D48006800F02C
:1011F00087FA4348007800285ED02046E11704EBC8
:101200005171C910A4EBC101082956D2DFE801F0E1
:1012100004182C40A4B8CCE44FF48071494803F082
:101220004EF84FF40071484803F049F8082135485A
:1012300003F045F8454A0821042001F0E3FBE4E00F
:101240004FF480713F4803F038F84FF400713E4886
:1012500003F035F808212B4803F031F83C4A082107
:10126000042001F0CFFBD0E04FF48071354803F04B
:1012700024F84FF40071344803F021F80821214884
:1012800003F01DF8334A0821042001F0BBFBBCE049
:101290004FF480712B4803F012F84FF400712A4884
:1012A00003F00DF80821174803F007F8274A082132
:1012B000042001F0A7FBA8E0A8E0A5E0480000207A
:1012C000D0C7C6DAC8D50000D0C7C6DAD2BB000086
:1012D000D0C7C6DAB6FE0000D0C7C6DAC8FD000027
:1012E000D0C7C6DACBC40000D0C7C6DACEE500004E
:1012F000D0C7C6DAC1F900009800002060000020C5
:1013000061000020001401400CED00E00000FA052F
:10131000200000200000C8422400002000001643E6
:10132000280000205C0FC9422C0000200080A2444D
:101330000000FA44AE4749420080BB440000E1444B
:101340005C8F48420008014000100140000000206E
:1013500005000020170000204FF480712D4802F096
:10136000ACFF4FF400712C4802F0A9FF08212B4874
:1013700002F0A3FF2A4A0821042001F043FB44E0C5
:101380004FF48071234802F09AFF4FF40071224815
:1013900002F093FF0821214802F08FFF214A082123
:1013A000042001F02FFB30E04FF48071194802F067
:1013B00086FF4FF40071184802F081FF082117489A
:1013C00002F07BFF1021154802F079FF154A082131
:1013D000042001F017FB18E04FF480710D4802F073
:1013E0006CFF4FF400710C4802F067FF08210B48B6
:1013F00002F063FF1021094802F061FF094A082149
:10140000042001F0FFFA00E000BF00BF601CC4B27E
:1014100076E6000000080140001001400014014081
:10142000050000200E000020704700BFFEE700BF4F
:10143000FEE700BFFEE700BFFEE77047704770475A
:1014400002480068401C01490860704720000020E5
:101450000CB50020019000906C48006840F480308A
:101460006A49086000BF6948006800F400300090D5
:101470000198401C0190009818B90198B0F5A06F30
:10148000F1D16248006800F4003010B101200090F2
:1014900001E0002000900098012843D15C480068DA
:1014A00040F010005A4908600846006820F0030028
:1014B00008600846006840F0020008605348406831
:1014C000524948600846406848600846406840F411
:1014D000806048600846406820F47C1048600846F8
:1014E000406840F4E81048600846006840F08070AA
:1014F000086000BF4548006800F000700028F9D07F
:101500004248406820F0030040494860084640686F
:1015100040F00200486000BF3C48406800F00C000A
:101520000828F9D10CBD10B5FFF792FF10BD10B51A
:101530003648006840F001003449086008464068B9
:10154000344908403149486008460068324908403B
:101550002E4908600846006820F48020086008468C
:10156000406820F4FE0048604FF41F008860FFF7D9
:10157000DAFF4FF000602949086010BD10B5002166
:1015800000200022214B5B6803F00C0121B10429EB
:1015900006D0082928D107E0214B224C236027E000
:1015A0001F4B204C236023E0184B5B6803F4701042
:1015B000164B5B6803F48032022303EB904022B9A0
:1015C000194B4343174C23600DE0104B5B6803F449
:1015D000003323B1144B4343124C236003E0104B00
:1015E0004343104C236003E00D4B0E4C236000BFBF
:1015F00000BF064B5B68C3F303130C4CE15C094B63
:101600001B68CB40074C236010BD00000010024057
:10161000002002400000FFF8FFFFF6FE08ED00E0AA
:1016200000127A006400002000093D0068000020DC
:1016300000B585B00121042003F018FB0121480703
:1016400003F021FB3020ADF8100000208DF81300CE
:1016500003208DF8120004A93E4802F081FD1021FC
:101660003C4802F02CFE20213A4802F028FE0020DF
:10167000009001900290022003906946002003F040
:10168000CCF86946102003F0C8F80121002003F0CF
:10169000E1F80121102003F0DDF80021084603F0F5
:1016A0003AF90021084603F043F905B000BD2DE9E1
:1016B000F0410646304605F009F904460D46002281
:1016C000254B2046294604F07DFE04460D460022A7
:1016D000224B2046294604F0FBFF07464FF06632B6
:1016E0001F4B04F06FFE04460D462046294604F0C9
:1016F000C1FF87B23946002003F00DF9BDE8F08143
:101700002DE9F0410646304605F0E0F804460D4666
:101710000022114B2046294604F054FE04460D4693
:101720000022104B2046294604F0D2FF07464FF016
:1017300066320B4B04F046FE04460D462046294611
:1017400004F098FF87B23946002003F0F1F8BDE8B5
:10175000F08100000008014000408F400000B040D0
:1017600066660A4000FEAF4008B50121342003F050
:101770007DFA4FF48070ADF8000010208DF8030062
:1017800003208DF8020069465A4802F0E9FC4FF444
:101790000070ADF8000010208DF8030003208DF8D4
:1017A00002006946544802F0DBFC1820ADF8000046
:1017B0006946524802F0D4FC08BD08B50121242036
:1017C00003F054FA4FF4C050ADF8000048208DF8F3
:1017D000030003208DF802006946464802F0C0FC71
:1017E0004FF40040ADF800006946444802F0B8FCF0
:1017F00008BD08B501213C2003F038FA4FF4004041
:10180000ADF8000048208DF8030003208DF8020099
:101810006946384802F0A4FC4FF40040ADF80000DF
:101820006946374802F09CFC4FF4A450ADF8000024
:101830006946314802F094FC0120ADF80000694689
:101840002E4802F08DFC08BD10B5FFF78DFFFFF7A5
:10185000D0FFFFF7B2FF10BD704710B529480078E0
:1018600078B34FF48051234802F00DFD58B14FF486
:101870000061204802F007FD28B14FF400411F48E5
:1018800002F001FDE8B90A2002F03CFB00201D49EE
:1018900008704FF48051174802F0F5FC08B9022097
:1018A00010BD4FF40061134802F0EDFC08B90320AD
:1018B000F6E74FF40041114802F0E5FCB8B9042006
:1018C000EEE7FFE74FF480510A4802F0DCFC012804
:1018D0000DD1C102074802F0D6FC012807D1C1038F
:1018E000064802F0D0FC012801D10649087000200A
:1018F000D6E700000008014000100140001401403C
:10190000000C0140790000200020414948800880F7
:101910004049086040490880704701463C4B1B889D
:10192000581CC31700EBD3535B12A0EB43239AB2AE
:1019300037484088904205D035480388001DC1547F
:10194000001F02807047014631484088304A1288A3
:1019500090420FD02E484288001D805C08702C4AAF
:101960005288501CC21700EBD2525212A0EB4222F6
:10197000274B5A8070472648008800F50070244A9B
:101980005288811AC81701EBD0504012A1EB4020B9
:1019900080B27047F8B504460D460026002000903E
:1019A0002FE06846FFF7CFFF1B48008820B99DF85D
:1019B0000000EE2800D024E017480088A84208DA8A
:1019C0009DF80010144802880088401C124B1880B3
:1019D000A1549DF800000F49096840EA01200D4913
:1019E0000860084600686FF44031884208D10A4810
:1019F0000688002007490860074908803046F8BD7E
:101A000000BFFFF7B8FF0028CBDC0020F7E700009D
:101A1000D80000207C00002080000020014606E065
:101A20004FF47A7200E0521E002AFCDC491E0029A5
:101A3000F6DC704710B5044603E0207802F0F2F9B6
:101A4000641C20780028F8D110BD70B505460E46FC
:101A5000002404E0285D02F0E5F9601C84B2B44281
:101A6000F8DB70BD70B505460E4600240AE035F877
:101A70001410080A02F0D6F915F8140002F0D2F991
:101A8000601C84B2B442F2DB70BD10B5EE2002F0EF
:101A9000C9F9042002F0C6F9FF2002F0C3F9FC20C6
:101AA00002F0C0F9FF2002F0BDF9FF2002F0BAF900
:101AB00010BD10B50446EE2002F0B4F9412002F04A
:101AC000B1F9200A02F0AEF9E0B202F0ABF9FF2062
:101AD00002F0A8F9FC2002F0A5F9FF2002F0A2F91B
:101AE000FF2002F09FF910BD10B50446EE2002F071
:101AF00099F9422002F096F9200A02F093F9E0B237
:101B000002F090F9FF2002F08DF9FC2002F08AF932
:101B1000FF2002F087F9FF2002F084F910BD70B5B4
:101B200006460C461546EE2002F07CF9A32002F092
:101B300079F9F0B202F076F9200A02F073F9E0B216
:101B400002F070F9280A02F06DF9E8B202F06AF9C1
:101B5000FF2002F067F9FC2002F064F9FF2002F098
:101B600061F9FF2002F05EF970BD10B5EE2002F0C1
:101B700059F9012002F056F9FF2002F053F9FC2038
:101B800002F050F9FF2002F04DF9FF2002F04AF96F
:101B900010BD70B504460D46EE2002F043F9432017
:101BA00002F040F9E0B202F03DF9E8B202F03AF991
:101BB000FF2002F037F9FC2002F034F9FF2002F098
:101BC00031F9FF2002F02EF970BD70B506460C46C3
:101BD0001546EE2002F026F9452002F023F9F0B276
:101BE00002F020F9200A02F01DF9E0B202F01AF921
:101BF000280A02F017F9E8B202F014F9FF2002F007
:101C000011F9FC2002F00EF9FF2002F00BF9FF2081
:101C100002F008F970BD70B504460D46EE2002F0E2
:101C200001F9442002F0FEF8200A02F0FBF8E0B2CD
:101C300002F0F8F8280A02F0F5F8E8B202F0F2F83B
:101C4000FF2002F0EFF8FC2002F0ECF8FF2002F099
:101C5000E9F8FF2002F0E6F870BD2DE9F0410446F6
:101C60000D4616461F46DDF81880EE2002F0DAF821
:101C7000202002F0D7F8200A02F0D4F8E0B202F0F7
:101C8000D1F8280A02F0CEF8E8B202F0CBF8F0B2B0
:101C900002F0C8F8F8B202F0C5F84046FFF7CAFEF5
:101CA000FF2002F0BFF8FC2002F0BCF8FF2002F099
:101CB000B9F8FF2002F0B6F8BDE8F0812DE9F04157
:101CC00006460C4615461F46DDF81880EE2002F049
:101CD000A9F8212002F0A6F8F0B202F0A3F8200A39
:101CE00002F0A0F8E0B202F09DF8280A02F09AF89B
:101CF000E8B202F097F8F8B202F094F808F0FF00AA
:101D000002F090F8FF2002F08DF8FC2002F08AF833
:101D1000FF2002F087F8FF2002F084F8BDE8F08190
:101D200070B504460D46EE2002F07CF8312002F03A
:101D300079F8200A02F076F8E0B202F073F8E8B21F
:101D400002F070F8FF2002F06DF8FC2002F06AF853
:101D5000FF2002F067F8FF2002F064F870BD2DE963
:101D6000F04104460D4616461F46EE2002F05AF892
:101D7000322002F057F8200A02F054F8E0B202F0E4
:101D800051F8280A02F04EF8E8B202F04BF8300A97
:101D900002F048F8F0B202F045F8F8B202F042F86A
:101DA000FF2002F03FF8FC2002F03CF8FF2002F098
:101DB00039F8FF2002F036F8BDE8F0812DE9F05F38
:101DC00004460D4616461F46DDE90CABDDE90A89DF
:101DD000EE2002F027F8332002F024F8200A02F067
:101DE00021F8E0B202F01EF8280A02F01BF8E8B26F
:101DF00002F018F8300A02F015F8F0B202F012F80A
:101E0000380A02F00FF8F8B202F00CF84FEA182086
:101E100002F008F808F0FF0002F004F84FEA192079
:101E200002F000F809F0FF0001F0FCFF4FEA1A2071
:101E300001F0F8FF0AF0FF0001F0F4FF0BF0FF00E3
:101E400001F0F0FFFF2001F0EDFFFC2001F0EAFFC0
:101E5000FF2001F0E7FFFF2001F0E4FFBDE8F09F65
:101E60002DE9F04104460D4616461F46DDF8188060
:101E7000EE2001F0D7FF802001F0D4FF200A01F00E
:101E8000D1FFE0B201F0CEFF280A01F0CBFFE8B2AB
:101E900001F0C8FF300A01F0C5FFF0B201F0C2FF47
:101EA000F8B201F0BFFF08F0FF0001F0BBFFFF2018
:101EB00001F0B8FFFC2001F0B5FFFF2001F0B2FFF8
:101EC000FF2001F0AFFFBDE8F08170B504460D467C
:101ED000EE2001F0A7FF502001F0A4FF200A01F03E
:101EE000A1FFE0B201F09EFF280A01F09BFFE8B2DB
:101EF00001F098FFFF2001F095FFFC2001F092FF18
:101F0000FF2001F08FFFFF2001F08CFF70BD2DE955
:101F1000F04104460D4616461F46EE2001F082FFB2
:101F2000512001F07FFF200A01F07CFFE0B201F0B8
:101F300079FF280A01F076FFE8B201F073FF300A5A
:101F400001F070FFF0B201F06DFF380A01F06AFF96
:101F5000F8B201F067FFFF2001F064FFFC2001F000
:101F600061FFFF2001F05EFFFF2001F05BFFBDE895
:101F7000F08170B505460E461446EE2001F052FF82
:101F8000632001F04FFFE8B201F04CFF4FF6FF7005
:101F900000EA44013046FFF765FDFF2001F042FFF3
:101FA000FC2001F03FFFFF2001F03CFFFF2001F08B
:101FB00039FF70BD2DE9F04104460D4616461F4617
:101FC000EE2001F02FFF592001F02CFF200A01F034
:101FD00029FFE0B201F026FF280A01F023FFE8B252
:101FE00001F020FF39463046FFF73CFDFF2001F0AD
:101FF00019FFFC2001F016FFFF2001F013FFFF2066
:1020000001F010FFBDE8F0812DE9F04104460D46D6
:1020100016461F46EE2001F005FF752001F002FF75
:10202000200A01F0FFFEE0B201F0FCFE280A01F0F8
:10203000F9FEE8B201F0F6FE39463046FFF712FD30
:10204000FF2001F0EFFEFC2001F0ECFEFF2001F08C
:10205000E9FEFF2001F0E6FEBDE8F0812DE9F04148
:1020600004460D4616461F46EE2001F0DBFE7620A4
:1020700001F0D8FE200A01F0D5FEE0B201F0D2FE58
:10208000280A01F0CFFEE8B201F0CCFE3946304616
:10209000FFF7E8FCFF2001F0C5FEFC2001F0C2FEC6
:1020A000FF2001F0BFFEFF2001F0BCFEBDE8F08183
:1020B0002DE9F04104460D4616461F46EE2001F07C
:1020C000B1FE772001F0AEFEE0B201F0ABFEE8B267
:1020D00001F0A8FEF0B201F0A5FEF8B201F0A2FEF8
:1020E000FF2001F09FFEFC2001F09CFEFF2001F08C
:1020F00099FEFF2001F096FEBDE8F08170B505461F
:102100000C46EE2001F08EFE682001F08BFE4FF6AB
:10211000FF7000EA44012846FFF7A4FCFF2001F00D
:1021200081FEFC2001F07EFEFF2001F07BFEFF20FF
:1021300001F078FE70BD70B505460C46EE2001F04A
:1021400071FE692001F06EFE4FF6FF7000EA440157
:102150002846FFF787FCFF2001F064FEFC2001F019
:1021600061FEFF2001F05EFEFF2001F05BFE70BD0E
:1021700070B504460D461646EE2001F053FE52207F
:1021800001F050FE200A01F04DFEE0B201F04AFEDF
:10219000280A01F047FEE8B201F044FE300A01F0DF
:1021A00041FEF0B201F03EFEFF2001F03BFEFC20BC
:1021B00001F038FEFF2001F035FEFF2001F032FE75
:1021C00070BD70B504460D461646EE2001F02AFE9D
:1021D000532001F027FE200A01F024FEE0B201F0B6
:1021E00021FE280A01F01EFEE8B201F01BFE300AB3
:1021F00001F018FEF0B201F015FEFF2001F012FE12
:10220000FC2001F00FFEFF2001F00CFEFF2001F08A
:1022100009FE70BD2DE9F04104460D4616461F46E5
:10222000DDF81880EE2001F0FDFD672001F0FAFDD9
:10223000200A01F0F7FDE0B201F0F4FD280A01F0F8
:10224000F1FDE8B201F0EEFD300A01F0EBFDF0B275
:1022500001F0E8FD380A01F0E5FDF8B201F0E2FD19
:102260004FEA182001F0DEFD08F0FF0001F0DAFD72
:10227000FF2001F0D7FDFC2001F0D4FDFF2001F08C
:10228000D1FDFF2001F0CEFDBDE8F0812DE9F04148
:1022900004460D4616461F46EE2001F0C3FD5420AD
:1022A00001F0C0FD200A01F0BDFDE0B201F0BAFD71
:1022B000280A01F0B7FDE8B201F0B4FD300A01F0E0
:1022C000B1FDF0B201F0AEFD380A01F0ABFDF8B29D
:1022D00001F0A8FDFF2001F0A5FDFC2001F0A2FD0A
:1022E000FF2001F09FFDFF2001F09CFDBDE8F08183
:1022F0002DE9F04104460D4616461F46EE2001F03A
:1023000091FD552001F08EFD200A01F08BFDE0B219
:1023100001F088FD280A01F085FDE8B201F082FD98
:10232000300A01F07FFDF0B201F07CFD380A01F0C7
:1023300079FDF8B201F076FDFF2001F073FDFC207D
:1023400001F070FDFF2001F06DFDFF2001F06AFD3E
:10235000BDE8F0812DE9F04104460D4616461F46C2
:10236000EE2001F05FFD562001F05CFD200A01F037
:1023700059FDE0B201F056FD280A01F053FDE8B224
:1023800001F050FD300A01F04DFDF0B201F04AFDC0
:10239000380A01F047FDF8B201F044FDFF2001F0DA
:1023A00041FDFC2001F03EFDFF2001F03BFDFF2040
:1023B00001F038FDBDE8F0812DE9F04104460D46FD
:1023C00016461F46EE2001F02DFD572001F02AFD94
:1023D000200A01F027FDE0B201F024FD280A01F0F7
:1023E00021FDE8B201F01EFD300A01F01BFDF0B244
:1023F00001F018FD380A01F015FDF8B201F012FDE8
:10240000FF2001F00FFDFC2001F00CFDFF2001F08A
:1024100009FDFF2001F006FDBDE8F08110B504467E
:10242000EE2001F0FFFC602001F0FCFCE0B201F0C6
:10243000F9FCFF2001F0F6FCFC2001F0F3FCFF208A
:1024400001F0F0FCFF2001F0EDFC10BD10B50446DA
:10245000EE2001F0E7FC612001F0E4FCE0B201F0C5
:10246000E1FCFF2001F0DEFCFC2001F0DBFCFF20A2
:1024700001F0D8FCFF2001F0D5FC10BD2DE9F041A2
:1024800004460D4616461F46EE2001F0CBFC6520A3
:1024900001F0C8FC200A01F0C5FCE0B201F0C2FC6A
:1024A000280A01F0BFFCE8B201F0BCFC300A01F0E0
:1024B000B9FCF0B201F0B6FC380A01F0B3FCF8B296
:1024C00001F0B0FCFF2001F0ADFCFC2001F0AAFC03
:1024D000FF2001F0A7FCFF2001F0A4FCBDE8F08183
:1024E0002DE9F0410746884615461E4600240FB1E7
:1024F00044F00104B8F1000F01D044F0020415B11A
:1025000044EA8500C4B216B144EA4610C4B2EE20D3
:1025100001F088FC702001F085FCE0B201F082FC43
:10252000FF2001F07FFCFC2001F07CFCFF2001F08B
:1025300079FCFF2001F076FCBDE8F08110B5EE20BB
:1025400001F070FC722001F06DFCFF2001F06AFCCC
:10255000FC2001F067FCFF2001F064FCFF2001F08B
:1025600061FC10BD10B5EE2001F05CFC732001F0A1
:1025700059FCFF2001F056FCFC2001F053FCFF2029
:1025800001F050FCFF2001F04DFC10BD10B5EE2015
:1025900001F048FC092001F045FCDE2001F042FC7E
:1025A000ED2001F03FFC132001F03CFC312001F054
:1025B00039FCFF2001F036FCFC2001F033FCFF2049
:1025C00001F030FCFF2001F02DFC10BD10B5EE2015
:1025D00001F028FC082001F025FCA52001F022FCD8
:1025E0005A2001F01FFC5F2001F01CFCF52001F0D7
:1025F00019FCFF2001F016FCFC2001F013FCFF2069
:1026000001F010FCFF2001F00DFC10BD10B50446D8
:10261000EE2001F007FCA02001F004FCE0B201F084
:1026200001FCFF2001F0FEFBFC2001F0FBFBFF2082
:1026300001F0F8FBFF2001F0F5FB10BD10B50446DA
:10264000EE2001F0EFFBA12001F0ECFBE0B201F085
:10265000E9FBFF2001F0E6FBFC2001F0E3FBFF209B
:1026600001F0E0FBFF2001F0DDFB10BD10B50446DA
:10267000EE2001F0D7FBA22001F0D4FBE0B201F084
:10268000D1FBFF2001F0CEFBFC2001F0CBFBFF20B3
:1026900001F0C8FBFF2001F0C5FB10BD70B504467A
:1026A0000D46EE2001F0BEFBA42001F0BBFBE0B222
:1026B00001F0B8FBE8B201F0B5FBFF2001F0B2FB7E
:1026C000FC2001F0AFFBFF2001F0ACFBFF2001F08C
:1026D000A9FB70BD10B50446EE2001F0A3FB052058
:1026E00001F0A0FBE0B201F09DFBFF2001F09AFB9E
:1026F000FC2001F097FBFF2001F094FBFF2001F08C
:1027000091FB10BD2DE9F04705460E4617461C46C5
:10271000DDE90889EE2001F085FB852001F082FBD0
:10272000E8B201F07FFBF0B201F07CFBF8B201F0FF
:1027300079FB200A01F076FBE0B201F073FB4FEA6F
:10274000182001F06FFB08F0FF0001F06BFB4FEA6F
:10275000192001F067FB09F0FF0001F063FBFF2087
:1027600001F060FBFC2001F05DFBFF2001F05AFB53
:10277000FF2001F057FBBDE8F08770B504460E4618
:102780001546EE2001F04EFB872001F04BFB200E9A
:1027900001F048FBC4F3074001F044FBC4F30720F9
:1027A00001F040FBE0B201F03DFB31462846FFF767
:1027B0004CF9FF2001F036FBFC2001F033FBFF2039
:1027C00001F030FBFF2001F02DFB70BD70B5044619
:1027D0000D46EE2001F026FB882001F023FB200EA1
:1027E00001F020FBC4F3074001F01CFBC4F30720F9
:1027F00001F018FBE0B201F015FB280A01F012FB12
:10280000E8B201F00FFBFF2001F00CFBFC2001F00F
:1028100009FBFF2001F006FBFF2001F003FB70BD68
:1028200010B50446EE2001F0FDFAB12001F0FAFAED
:10283000012001F0F7FAFF2001F0F4FAFC2001F08A
:10284000F1FAFF2001F0EEFAFF2001F0EBFA10BDE3
:1028500010B50446EE2001F0E5FAB12001F0E2FAED
:10286000002001F0DFFA200A01F0DCFAE0B201F00A
:10287000D9FAFF2001F0D6FAFC2001F0D3FAFF20AC
:1028800001F0D0FAFF2001F0CDFA10BD10B50446DA
:10289000EE2001F0C7FAB32001F0C4FAE0B201F073
:1028A000C1FAFF2001F0BEFAFC2001F0BBFAFF20C4
:1028B00001F0B8FAFF2001F0B5FA10BD70B504467A
:1028C0000D461646EE2001F0ADFAB12001F0AAFA4D
:1028D000022001F0A7FA200A01F0A4FAE0B201F008
:1028E000A1FA280A01F09EFAE8B201F09BFAF0B2D0
:1028F00001F098FAFF2001F095FAFC2001F092FA1D
:10290000FF2001F08FFAFF2001F08CFA70BD70B546
:1029100004460D461646EE2001F084FAB12001F07F
:1029200081FA032001F07EFA200A01F07BFAE0B27E
:1029300001F078FA280A01F075FAE8B201F072FAAB
:10294000F0B201F06FFAFF2001F06CFAFC2001F008
:1029500069FAFF2001F066FAFF2001F063FA70BD0A
:1029600070B504460D461646EE2001F05BFAB12024
:1029700001F058FA042001F055FA200A01F052FA49
:10298000E0B201F04FFA280A01F04CFAE8B201F087
:1029900049FAF0B201F046FAFF2001F043FAFC20B8
:1029A00001F040FAFF2001F03DFAFF2001F03AFA71
:1029B00070BD70B504460D461646EE2001F032FAA1
:1029C000B12001F02FFA102001F02CFA200A01F0BA
:1029D00029FAE0B201F026FA280A01F023FAE8B257
:1029E00001F020FAF0B201F01DFAFF2001F01AFA0E
:1029F000FC2001F017FAFF2001F014FAFF2001F08B
:102A000011FA70BD70B504460D461646EE2001F071
:102A100009FAB12001F006FA102001F003FA200AA9
:102A200001F000FAE0B201F0FDF9280A01F0FAF92C
:102A3000E8B201F0F7F93046FEF7FCFFFF2001F0A5
:102A4000F1F9FC2001F0EEF9FF2001F0EBF9FF2095
:102A500001F0E8F970BD2DE9F04105460E46144637
:102A60001F46DDF81880EE2001F0DCF9B12001F0FE
:102A7000D9F9072001F0D6F9280A01F0D3F9E8B214
:102A800001F0D0F9300A01F0CDF9F0B201F0CAF945
:102A90000FB1012100E00021C8B201F0C3F908F034
:102AA0000F0141F0800001F0BDF9200E01F0BAF9EC
:102AB000C4F3074001F0B6F9C4F3072001F0B2F9FE
:102AC000E0B201F0AFF9FF2001F0ACF9FC2001F019
:102AD000A9F9FF2001F0A6F9FF2001F0A3F9BDE854
:102AE000F0812DE9FF4104460D461F46DDF82880A0
:102AF0000026EE2001F096F9B12001F093F90720AD
:102B000001F090F9200A01F08DF9E0B201F08AF9A4
:102B1000280A01F087F9E8B201F084F9022001F0F7
:102B200081F907F00F01B8F1000F01D0802200E019
:102B300000221143C8B201F075F9002607E0C6F182
:102B4000030102AA505C01F06DF9701CC6B2042E9C
:102B5000F5DBFF2001F066F9FC2001F063F9FF20AE
:102B600001F060F9FF2001F05DF9BDE8FF8170B56B
:102B700005460E461446EE2001F054F9B12001F04E
:102B800051F9102001F04EF9280A01F04BF9E8B292
:102B900001F048F9300A01F045F9F0B201F042F9CC
:102BA000200E01F03FF9C4F3074001F03BF9C4F3F4
:102BB000072001F037F9E0B201F034F9FF2001F00D
:102BC00031F9FC2001F02EF9FF2001F02BF9FF2054
:102BD00001F028F970BD70B505460E461446EE208A
:102BE00001F020F9B12001F01DF9102001F01AF9CF
:102BF000280A01F017F9E8B201F014F9300A01F0DF
:102C000011F9F0B201F00EF9200E01F00BF9C4F346
:102C1000074001F007F9C4F3072001F003F9E0B21F
:102C200001F000F9FF2001F0FDF8FC2001F0FAF8B6
:102C3000FF2001F0F7F8FF2001F0F4F870BD70B547
:102C400004460D461646EE2001F0ECF8B12001F0E6
:102C5000E9F8102001F0E6F8200A01F0E3F8E0B20C
:102C600001F0E0F8280A01F0DDF8E8B201F0DAF846
:102C7000300A01F0D7F8F0B201F0D4F8FF2001F0EB
:102C8000D1F8FC2001F0CEF8FF2001F0CBF8FF20B6
:102C900001F0C8F870BD70B505460E461446EE202A
:102CA00001F0C0F8B12001F0BDF8102001F0BAF831
:102CB000280A01F0B7F8E8B201F0B4F8300A01F0E0
:102CC000B1F8F0B201F0AEF8200E01F0ABF8C4F3A9
:102CD000074001F0A7F8C4F3072001F0A3F8E0B221
:102CE00001F0A0F8FF2001F09DF8FC2001F09AF817
:102CF000FF2001F097F8FF2001F094F870BD70B547
:102D000004460D461646EE2001F08CF8B12001F085
:102D100089F8102001F086F8200A01F083F8E0B26B
:102D200001F080F8280A01F07DF8E8B201F07AF8A5
:102D3000F0B201F077F8FF2001F074F8FC2001F008
:102D400071F8FF2001F06EF8FF2001F06BF870BD04
:102D500070B504460D46EE2001F064F8B12001F094
:102D600061F8112001F05EF8200A01F05BF8E0B292
:102D700001F058F8280A01F055F8E8B201F052F8CD
:102D8000FF2001F04FF8FC2001F04CF8FF2001F08B
:102D900049F8FF2001F046F870BD70B504460D46B5
:102DA000EE2001F03FF8B12001F03CF8202001F0C6
:102DB00039F8200A01F036F8E0B201F033F8280AB9
:102DC00001F030F8E8B201F02DF8FF2001F02AF808
:102DD000FC2001F027F8FF2001F024F8FF2001F08B
:102DE00021F870BD70B504460D46EE2001F01AF8CA
:102DF000B12001F017F8212001F014F8200A01F0A9
:102E000011F8E0B201F00EF8280A01F00BF8E8B270
:102E100001F008F8FF2001F005F8FC2001F002F8AD
:102E2000FF2000F0FFFFFF2000F0FCFF70BD70B539
:102E300004460D46EE2000F0F5FFB12000F0F2FF51
:102E4000222000F0EFFF200A00F0ECFFE0B200F0DB
:102E5000E9FF280A00F0E6FFE8B200F0E3FFFF20F8
:102E600000F0E0FFFC2000F0DDFFFF2000F0DAFFC3
:102E7000FF2000F0D7FF70BD70B504460D46164622
:102E8000EE2000F0CFFFB12000F0CCFF232000F0B7
:102E9000C9FF200A00F0C6FFE0B200F0C3FF280A15
:102EA00000F0C0FFE8B200F0BDFFF0B200F0BAFFE2
:102EB000FF2000F0B7FFFC2000F0B4FFFF2000F07F
:102EC000B1FFFF2000F0AEFF70BD70B504460D46A7
:102ED000EE2000F0A7FFB12000F0A4FF242000F0B6
:102EE000A1FF200A00F09EFFE0B200F09BFF280A3D
:102EF00000F098FFE8B200F095FFFF2000F092FF8D
:102F0000FC2000F08FFFFF2000F08CFFFF2000F07E
:102F100089FF70BD70B504460D46EE2000F082FFBB
:102F2000B12000F07FFF252000F07CFF200A00F098
:102F300079FFE0B200F076FF280A00F073FFE8B2F4
:102F400000F070FFFF2000F06DFFFC2000F06AFF32
:102F5000FF2000F067FFFF2000F064FF70BD2DE947
:102F6000F04104460D4617461E46EE2000F05AFF7B
:102F7000B12000F057FF302000F054FF200A00F08D
:102F800051FFE0B200F04EFF280A00F04BFFE8B21C
:102F900000F048FFF8B200F045FF300A00F042FFB1
:102FA000F0B200F03FFFFF2000F03CFFFC2000F0FB
:102FB00039FFFF2000F036FFFF2000F033FFBDE8AF
:102FC000F08170B504460D461646EE2000F02AFF4B
:102FD000B12000F027FF312000F024FF200A00F08C
:102FE00021FFE0B200F01EFF280A00F01BFFE8B24C
:102FF00000F018FFF0B200F015FFFF2000F012FF04
:10300000FC2000F00FFFFF2000F00CFFFF2000F07D
:1030100009FF70BD2DE9F04104460D46174698465C
:10302000069EEE2000F0FEFEB12000F0FBFE3220F6
:1030300000F0F8FE200A00F0F5FEE0B200F0F2FE2B
:10304000280A00F0EFFEE8B200F0ECFEF8B200F063
:10305000E9FE300A00F0E6FEF0B200F0E3FE314691
:103060004046FEF7F2FCFF2000F0DCFEFC2000F002
:10307000D9FEFF2000F0D6FEFF2000F0D3FEBDE811
:10308000F08170B504460D461646EE2000F0CAFEEB
:10309000B12000F0C7FE332000F0C4FE200A00F08B
:1030A000C1FEE0B200F0BEFE280A00F0BBFEE8B2AE
:1030B00000F0B8FEF0B200F0B5FEFF2000F0B2FE66
:1030C000FC2000F0AFFEFF2000F0ACFEFF2000F07F
:1030D000A9FE70BD2DE9F04704460D4616461F4671
:1030E000DDE90889EE2000F09DFEB12000F09AFE97
:1030F000342000F097FE200A00F094FEE0B200F0C9
:1031000091FE280A00F08EFEE8B200F08BFEC6F3B6
:10311000072000F087FEF0B200F084FE380A00F0CD
:1031200081FEF8B200F07EFEC8F3072000F07AFEC0
:1031300008F0FF0000F076FE4FEA192000F072FE62
:1031400009F0FF0000F06EFEFF2000F06BFEFC2097
:1031500000F068FEFF2000F065FEFF2000F062FE38
:10316000BDE8F08710B50446EE2000F05BFEB1200C
:1031700000F058FE122000F055FE200A00F052FE2A
:10318000E0B200F04FFE10BD70B504460D46200AB7
:1031900000F048FEE0B200F045FE002000F042FEE4
:1031A000012000F03FFEE8B200F03CFE70BD70B5BB
:1031B00005460C46280A00F035FEE8B200F032FE63
:1031C000002000F02FFE042000F02CFE200E00F066
:1031D00029FEC4F3074000F025FEC4F3072000F0E9
:1031E00021FEE0B200F01EFE70BD70B505460C4633
:1031F000280A00F017FEE8B200F014FE002000F0EC
:1032000011FE042000F00EFE200E00F00BFEC4F3B1
:10321000074000F007FEC4F3072000F003FEE0B211
:1032200000F000FE70BD70B505460C46280A00F09F
:10323000F9FDE8B200F0F6FD002000F0F3FD0420F7
:1032400000F0F0FD200E00F0EDFDC4F3074000F0AB
:10325000E9FDC4F3072000F0E5FDE0B200F0E2FD77
:1032600070BD01460A4600E0491C08780028FBD1E1
:10327000881A704770B504460D46200A00F0D2FD4A
:10328000E0B200F0CFFD2846FFF7EBFFC0F30726C2
:10329000304600F0C7FD2846FFF7E3FFC6B23046D0
:1032A00000F0C0FD2846FEF7C5FB70BD70B50446B2
:1032B0000D46200A00F0B6FDE0B200F0B3FD00209C
:1032C00000F0B0FD022000F0ADFD280A00F0AAFDDC
:1032D000E8B200F0A7FD70BD70B504460D46200AA7
:1032E00000F0A0FDE0B200F09DFD012000F09AFD8D
:1032F000E8B200F097FD70BD70B504460D46200A97
:1033000000F090FDE0B200F08DFD022000F08AFD9B
:10331000E8B200F087FD70BD10B5FF2000F082FD1F
:10332000FC2000F07FFDFF2000F07CFDFF2000F07E
:1033300079FD10BD70B505460E461446EE2000F02E
:1033400071FDB12000F06EFD402000F06BFD280AF9
:1033500000F068FDE8B200F065FD300A00F062FDA3
:10336000F0B200F05FFD200E00F05CFDC4F30740FA
:1033700000F058FDC4F3072000F054FDE0B200F067
:1033800051FDFF2000F04EFDFC2000F04BFDFF2022
:1033900000F048FDFF2000F045FD70BD70B504460B
:1033A0000D46EE2000F03EFDB12000F03BFD412037
:1033B00000F038FD200A00F035FDE0B200F032FDEB
:1033C000280A00F02FFDE8B200F02CFDFF2000F0ED
:1033D00029FDFC2000F026FDFF2000F023FDFF204A
:1033E00000F020FD70BD70B504460D46EE2000F0E3
:1033F00019FDB12000F016FD422000F013FD200A57
:1034000000F010FDE0B200F00DFD280A00F00AFD0A
:10341000E8B200F007FDFF2000F004FDFC2000F002
:1034200001FDFF2000F0FEFCFF2000F0FBFC70BD62
:1034300070B504460D46EE2000F0F4FCB12000F01B
:10344000F1FC442000F0EEFC200A00F0EBFCE0B2BE
:1034500000F0E8FC280A00F0E5FCE8B200F0E2FC2D
:10346000FF2000F0DFFCFC2000F0DCFCFF2000F07F
:10347000D9FCFF2000F0D6FC70BD70B504460D46A7
:103480001646EE2000F0CEFCB12000F0CBFC182058
:1034900000F0C8FC200A00F0C5FCE0B200F0C2FC5D
:1034A000280A00F0BFFCE8B200F0BCFC300A00F0D3
:1034B000B9FCF0B200F0B6FCFF2000F0B3FCFC2039
:1034C00000F0B0FCFF2000F0ADFCFF2000F0AAFCF3
:1034D00070BD70B504460D461646EE2000F0A2FC05
:1034E000B12000F09FFC192000F09CFC200A00F0A5
:1034F00099FCE0B200F096FC280A00F093FCE8B2D8
:1035000000F090FC300A00F08DFCF0B200F08AFC74
:10351000FF2000F087FCFC2000F084FCFF2000F07E
:1035200081FCFF2000F07EFC70BD2DE9F0410446D7
:103530000D4617461E46EE2000F074FCB12000F048
:1035400071FC132000F06EFC200A00F06BFCE0B26E
:1035500000F068FC280A00F065FCE8B200F062FCAC
:10356000F8B200F05FFC300A00F05CFCF0B200F052
:1035700059FCFF2000F056FCFC2000F053FCFF201B
:1035800000F050FCFF2000F04DFCBDE8F0812DE97B
:10359000F04706460C4615461F46DDE90889EE2031
:1035A00000F040FC862000F03DFCF0B200F03AFC58
:1035B000200A00F037FCE0B200F034FC280A00F0EA
:1035C00031FCE8B200F02EFCF8B200F02BFC08F061
:1035D000FF0000F027FC09F0FF0000F023FCFF20B3
:1035E00000F020FCFC2000F01DFCFF2000F01AFC85
:1035F000FF2000F017FCBDE8F08770B505460E46C9
:103600002C460EB144F08004EE2000F00BFCC120EB
:1036100000F008FCE0B200F005FC04F1C101C8B202
:1036200000F000FCFF2000F0FDFBFC2000F0FAFBA6
:10363000FF2000F0F7FBFF2000F0F4FB70BD70B539
:1036400004460D46EE2000F0EDFBB12000F0EAFB51
:10365000AA2000F0E7FB200E00F0E4FBC4F30740D3
:1036600000F0E0FBC4F3072000F0DCFBE0B200F068
:10367000D9FB280E00F0D6FBC5F3074000F0D2FBC3
:10368000C5F3072000F0CEFBE8B200F0CBFB70BD25
:1036900070B504460D46200A00F0C4FBE0B200F00D
:1036A000C1FB280A00F0BEFBE8B200F0BBFB70BD16
:1036B00010B5FF2000F0B6FBFC2000F0B3FBFF20AC
:1036C00000F0B0FBFF2000F0ADFB10BD70B504466C
:1036D0000D46EE2000F0A6FBB12000F0A3FBAB20CE
:1036E00000F0A0FB200E00F09DFBC4F3074000F0AB
:1036F00099FBC4F3072000F095FBE0B200F092FBC9
:10370000280E00F08FFBC5F3074000F08BFBC5F3DC
:10371000072000F087FBE8B200F084FBFF2000F0F8
:1037200081FBFC2000F07EFBFF2000F07BFBFF20F4
:1037300000F078FB70BD2DE9F04104460D461646B9
:103740001F46EE2000F06EFBB12000F06BFB602006
:1037500000F068FB200A00F065FBE0B200F062FBBD
:10376000280A00F05FFBE8B200F05CFB3946304607
:10377000FEF76BF9FF2000F055FBFC2000F052FB38
:10378000FF2000F04FFBFF2000F04CFBBDE8F08174
:103790002DE9F04104460D4616461F46EE2000F086
:1037A00041FBB12000F03EFB602000F03BFB200A13
:1037B00000F038FBE0B200F035FB280A00F032FBE5
:1037C000E8B200F02FFB39463046FEF74BF9FF20F8
:1037D00000F028FBFC2000F025FBFF2000F022FB7E
:1037E000FF2000F01FFBBDE8F0812DE9F041064607
:1037F0000F46154698460024EE2000F013FBB1203A
:1038000000F010FB602000F00DFB300A00F00AFB16
:10381000F0B200F007FB380A00F004FBF8B200F049
:1038200001FB16E055F82410080E00F0FBFA55F8DD
:103830002410C1F3074000F0F5FA35F82410C1F365
:10384000072000F0EFFA15F8240000F0EBFA601CF6
:10385000C4B24445E6DBFF2000F0E4FAFC2000F0AF
:10386000E1FAFF2000F0DEFAFF2000F0DBFABDE80D
:10387000F0812DE9F04705460E469046994600270F
:103880000024EE2000F0CEFAB12000F0CBFA602048
:1038900000F0C8FA280A00F0C5FAE8B200F0C2FA4F
:1038A000300A00F0BFFAF0B200F0BCFA11E058F8AC
:1038B0002740200E00F0B6FAC4F3074000F0B2FA39
:1038C000C4F3072000F0AEFAE0B200F0ABFA781CC7
:1038D000C7B24F45EBDBFF2000F0A4FAFC2000F05C
:1038E000A1FAFF2000F09EFAFF2000F09BFABDE84D
:1038F000F08770B504460D461646EE2000F092FAA9
:10390000B12000F08FFA612000F08CFA200A00F05C
:1039100089FAE0B200F086FA280A00F083FAE8B2E9
:1039200000F080FAF0B200F07DFAFF2000F07AFAA1
:10393000FC2000F077FAFF2000F074FAFF2000F07E
:1039400071FA70BD2DE9F04104460D4616461F463A
:10395000EE2000F067FAB12000F064FA622000F077
:1039600061FA200A00F05EFAE0B200F05BFA280A81
:1039700000F058FAE8B200F055FAF0B200F052FA4E
:10398000F8B200F04FFAFF2000F04CFAFC2000F0F3
:1039900049FAFF2000F046FAFF2000F043FABDE8A4
:1039A000F08170B504460D461646EE2000F03AFA56
:1039B000B12000F037FA632000F034FA200A00F05A
:1039C00031FAE0B200F02EFA280A00F02BFAE8B241
:1039D00000F028FA002000F025FA300A00F022FA60
:1039E000F0B200F01FFAFF2000F01CFAFC2000F0FB
:1039F00019FAFF2000F016FAFF2000F013FA70BD4C
:103A000070B504460D46EE2000F00CFAB12000F02F
:103A100009FA632000F006FA200A00F003FAE0B287
:103A200000F000FA280A00F0FDF9E8B200F0FAF917
:103A3000012000F0F7F9FF2000F0F4F9FC2000F07D
:103A4000F1F9FF2000F0EEF9FF2000F0EBF970BD76
:103A50002DE9F04104460D4616461F46DDF8188054
:103A6000EE2000F0DFF9B12000F0DCF9632000F077
:103A7000D9F9200A00F0D6F9E0B200F0D3F9280A0B
:103A800000F0D0F9E8B200F0CDF9022000F0CAF958
:103A9000300A00F0C7F9F0B200F0C4F9380A00F0BB
:103AA000C1F9F8B200F0BEF94FEA182000F0BAF9F7
:103AB00008F0FF0000F0B6F9FF2000F0B3F9FC2099
:103AC00000F0B0F9FF2000F0ADF9FF2000F0AAF9F6
:103AD000BDE8F0812DE9F04104460D4616461F462B
:103AE0004FF00008EE2000F09DF9B12000F09AF9A7
:103AF000502000F097F9200A00F094F9E0B200F0AD
:103B000091F9280A00F08EF9E8B200F08BF9300A3A
:103B100000F088F9F0B200F085F967B100BF07E066
:103B200017F8080000F07EF908F1010000F0FF0826
:103B3000B8F1070FF4DBFF2000F074F9FC2000F06F
:103B400071F9FF2000F06EF9FF2000F06BF9BDE87D
:103B5000F0812DE9F04104460D4616461F464FF010
:103B60000008EE2000F05EF9B12000F05BF9512072
:103B700000F058F9200A00F055F9E0B200F052F9CF
:103B8000280A00F04FF9E8B200F04CF9300A00F0D2
:103B900049F9F0B200F046F967B100BF07E017F845
:103BA000080000F03FF908F1010000F0FF08B8F14B
:103BB000070FF4DBFF2000F035F9FC2000F032F9AC
:103BC000FF2000F02FF9FF2000F02CF9BDE8F08174
:103BD00070B504460D461646EE2000F023F9B120DC
:103BE00000F020F9522000F01DF9200A00F01AF927
:103BF000E0B200F017F9280A00F014F9E8B200F07A
:103C000011F93046FDF716FFFF2000F00BF9FC20FC
:103C100000F008F9FF2000F005F9FF2000F002F99C
:103C200070BD70B504460D46EE2000F0FBF8B120E3
:103C300000F0F8F8532000F0F5F8200A00F0F2F850
:103C4000E0B200F0EFF8280A00F0ECF8E8B200F07B
:103C5000E9F8FF2000F0E6F8FC2000F0E3F8FF2090
:103C600000F0E0F8FF2000F0DDF870BD70B504460C
:103C70000D461646EE2000F0D5F8B12000F0D2F83F
:103C8000542000F0CFF8200A00F0CCF8E0B200F0A9
:103C9000C9F8280A00F0C6F8E8B200F0C3F8300A04
:103CA00000F0C0F8F0B200F0BDF8FF2000F0BAF864
:103CB000FC2000F0B7F8FF2000F0B4F8FF2000F07F
:103CC000B1F870BD70B504460D46EE2000F0AAF8BC
:103CD000B12000F0A7F8552000F0A4F8200A00F069
:103CE000A1F8E0B200F09EF8280A00F09BF8E8B2D4
:103CF00000F098F8FF2000F095F8FC2000F092F812
:103D0000FF2000F08FF8FF2000F08CF870BD10B598
:103D1000EE2000F087F8822000F084F8FF2000F009
:103D200081F8FC2000F07EF8FF2000F07BF8FF20F7
:103D300000F078F810BD70B504460025EE2000F0C4
:103D400071F844B100BF04E0605D00F06BF8681CDE
:103D5000C5B2132DF8DBFF2000F064F8FC2000F062
:103D600061F8FF2000F05EF8FF2000F05BF870BD06
:103D700000BF704700BF3E4A128802F04002002A8E
:103D8000F9D0C2B23A4B1B1D1A80704710B586B0ED
:103D90000446012144F2040000F068FF4FF4007073
:103DA000ADF8140003208DF8160018208DF81700C8
:103DB00005A9304800F0D4F94FF48060ADF8140044
:103DC00004208DF8170005A92A4800F0C9F925201C
:103DD0008DF8000003208DF801008DF8020001200D
:103DE0008DF80300684600F0F2F801940020ADF869
:103DF0000800ADF80A00ADF80C00ADF810000C207A
:103E0000ADF80E0001A91A4800F03BFB012240F278
:103E10002551174800F0CDFB0121154800F0BDFBEE
:103E200006B010BD10B504462146114800F022FC32
:103E300000BF80210E4800F08BFC0028F9D000BFA5
:103E400040210B4800F084FC0028F9D010BD10B5CB
:103E500040F22551064800F091FC38B1044800F0CA
:103E60000DFCC4B22046FDF758FD00BF10BD000098
:103E700000380140000801407FB505460C4601218D
:103E8000022000F000FFA8B2ADF80800A0B2ADF823
:103E900004000020ADF80A00ADF8060001A917489B
:103EA00001F01CF80121154801F04EFE01221146D7
:103EB000124801F08AFB1D208DF8000000208DF8CB
:103EC000010003208DF8020001208DF803006846F0
:103ED00000F07DF80021094801F05CFB7FBD10B5C2
:103EE0000121064801F01FFE012805D10449087090
:103EF0000121024801F014FE10BD00000004004042
:103F0000780000201B4A116808E00A22B0FBF2F298
:103F1000184B1B685B1A9A4200D200E0F5E700BF1D
:103F2000704770B56FF0040000F09BF81249B1F1D2
:103F3000807F00D31DE021F07F40401E4FF0E02243
:103F4000506150170F22002807DA13071D0E0B4B84
:103F500000F00F04241F1D5503E013071C0E084B2F
:103F60001C5400BF00204FF0E02290610720106138
:103F700000BF70BD2000002080FC0A0018ED00E0AA
:103F800000E400E00948804709480047FEE7FEE7F3
:103F9000FEE7FEE7FEE7FEE7FEE7FEE7FEE7FEE7F9
:103FA00004480549054A064B704700002F150008D4
:103FB0003101000840030020400900204005002096
:103FC0004005002031490143314A1160704770B506
:103FD000002100230F22C47804B32D4C246804F47C
:103FE000E064C4F5E064210AC1F10403CA404478E6
:103FF00004FA03F18478144021430901254C067822
:10400000A155047804F01F050124AC4005786D111A
:10401000AD0005F1E025C5F8004109E0047804F0A1
:104020001F050124AC401C4D0678761145F826404A
:1040300070BD1A4A0A400243154B1B1F1A60704795
:1040400039B1134A121D12680243114B1B1D1A602D
:1040500006E00F4A121D126882430D4B1B1D1A60A9
:104060007047042808D14FF0E021096941F00401AC
:104070004FF0E022116107E04FF0E021096921F0E3
:1040800004014FF0E0221161704700000000FA05C2
:104090000CED00E000E400E080E100E080FFFF1FA5
:1040A00010B50446CC48844208D10121042000F018
:1040B000F7FD0021042000F0F3FD46E0C7488442EC
:1040C00008D10121082000F0EBFD0021082000F0BC
:1040D000E7FD3AE0C248844208D10121102000F0F7
:1040E000DFFD0021102000F0DBFD2EE0BD48844202
:1040F00008D10121202000F0D3FD0021202000F074
:10410000CFFD22E0B848844208D10121402000F0D0
:10411000C7FD0021402000F0C3FD16E0B3488442F3
:1041200008D10121802000F0BBFD0021802000F09B
:10413000B7FD0AE0AE48844207D10121801500F0A6
:10414000AFFD0021A01500F0ABFD10BD10B50121A1
:10415000084600F0A5FD0021012000F0A1FD10BDE2
:104160002DE9F0410246002500260020002300240E
:10417000002791F803C00CF00F0591F803C00CF074
:10418000100CBCF1000F03D091F802C04CEA0505F9
:1041900091F800C0BCF1000F31D0146800202BE072
:1041A0004FF0010C0CFA00F3B1F800C00CEA030662
:1041B0009E4220D183004FF00F0C0CFA03F7BC4352
:1041C00005FA03FC4CEA040491F803C0BCF1280F83
:1041D00006D14FF0010C0CFA00FCC2F814C00AE042
:1041E00091F803C0BCF1480F05D14FF0010C0CFA57
:1041F00000FCC2F810C0401C0828D1D31460B1F8EC
:1042000000C0BCF1FF0F34DD546800202EE000F147
:10421000080C4FF0010808FA0CF3B1F800C00CEAE2
:1042200003069E4221D183004FF00F0C0CFA03F7D6
:10423000BC4305FA03FC4CEA040491F803C0BCF14A
:10424000280F05D100F1080C08FA0CF8C2F8148008
:1042500091F803C0BCF1480F07D100F1080C4FF0F2
:10426000010808FA0CF8C2F81080401C0828CED3C8
:104270005460BDE8F0814FF6FF710180022181702A
:104280000421C17070470246002093680B400BB1B7
:10429000012000E0002070470146886880B2704726
:1042A00002460020D3680B400BB1012000E0002043
:1042B00070470146C86880B270470161704741612C
:1042C00070470AB1016100E041617047C160704709
:1042D0004FF480320A43826181618261826982691E
:1042E000704702460020434B18684FF68073184011
:1042F00040EA021008433F4B186070473E49C861CE
:104300007047F0B50A46002300240021002500F084
:104310000046B6F1004F02D1364EF16901E0354E4C
:104320007168C0F3034583B200F44016B6F5401F30
:1043300008D121F070612F4E766826F070662D4FFF
:104340007E6012E000F48016B6F5801F06D10326C9
:1043500006FA05F4A14341F0706106E0460D36010E
:1043600003FA06F6B14341F0706122B1460D360101
:1043700003FA06F6314300F00046B6F1004F02D1D1
:104380001C4EF16101E01B4E7160F0BD30B50022A2
:104390008B071C0F0F2303FA04F2164B08338C1003
:1043A00053F824309343134C08348D1044F82530CF
:1043B00023468C1053F824308C07240F00FA04F4A1
:1043C00023430C4C08348D1044F8253030BD0A4985
:1043D000DC3108607047000000080140000C01401B
:1043E000001001400014014000180140001C014071
:1043F00000200140000001400000204210B50446AA
:10440000FB48844209D10121880300F049FC0021C6
:104410004FF4804000F044FC32E0F648844209D179
:104420000121480400F049FC00214FF4003000F065
:1044300044FC25E0F048844209D10121880400F0C1
:104440003CFC00214FF4802000F037FC18E0EB48E2
:10445000844209D10121C80400F02FFC00214FF44F
:10446000002000F02AFC0BE0E548844208D101213D
:10447000080500F022FC00214FF4801000F01DFC24
:1044800010BD2DE9F04786B005460E460024A24631
:1044900000BFA1460027B08900B100BF2F462C8A7B
:1044A0004CF6FF700440F08804432C82AC894EF631
:1044B000F3100440B08831890843718908430443EC
:1044C000AC81AC8A4FF6FF400440B0890443AC8213
:1044D00001A800F05EFBC648874202D1DDF810A0BB
:1044E00001E0DDF80CA0A88900F4004040B10AEB1F
:1044F000CA0000EB0A1031684900B0FBF1F807E090
:104500000AEBCA0000EB0A1031688900B0FBF1F831
:104510006420B8FBF0F004012009642101FB10893C
:10452000A88900F4004040B1322000EBC900B0FB84
:10453000F1F000F00700044308E0322000EB09101E
:104540006421B0FBF1F000F00F0004432C8106B0B1
:10455000BDE8F0874FF41651016000218180C180D1
:1045600001810C21418100218181704710B50246F3
:104570000020108A4FF2FF0318400B884C88234319
:104580008C882343CC8823431843108210BD00211C
:10459000018041808180C180704721B1828942F4CD
:1045A0000052828104E082894DF6FF731A408281B5
:1045B0007047F0B50346002400260025002040F691
:1045C0006A17B94200D100BF1846C1F3421401F086
:1045D0001F06012707FA06F5012C01D10C3004E073
:1045E000022C01D1103000E014301AB107682F43BB
:1045F000076002E00768AF430760F0BD1AB1838A25
:104600000B43838202E0838A8B4383827047028A52
:104610004FF6F0731A400282028A0A430282704700
:1046200082894FF2FF731A40828182890A43828114
:10463000704721B1828942F00202828104E08289BE
:104640004FF6FD731A4082817047028A4FF6DF737E
:104650001A400282028A0A430282704721B1028A0A
:1046600042F48042028204E0028A4BF6FF731A4051
:1046700002827047C1F30802828070470146888831
:10468000C0F308007047818941F0010181817047C2
:10469000028BD2B20283028B42EA0122028370476C
:1046A000028B02F47F420283028B0A43028370472B
:1046B00021B1828A42F02002828204E0828A4FF68F
:1046C000DF731A408282704721B1828A42F0100261
:1046D000828204E0828A4FF6EF731A40828270472A
:1046E00021B1828A42F00802828204E0828A4FF677
:1046F000F7731A408282704721B1828942F40042E6
:10470000828103E08289C2F30E028281704721B167
:10471000828A42F40062828204E0828A4FF2FF734E
:104720001A4082827047828A4FF6FB731A40828257
:10473000828A0A438282704721B1828A42F0020251
:10474000828204E0828A4FF6FD731A4082827047AB
:1047500002460020B1F5007F00D100BF13880B4056
:104760000BB1012000E00020704701F40072B2F5A7
:10477000007F00D100BFCA430280704770B5024677
:10478000002400230025002040F66A16B14200D123
:1047900000BFC1F3421501F01F03012606FA03F31F
:1047A000012D02D19689334006E0022D02D1168AEE
:1047B000334001E0968A33400C12012606FA04F4D5
:1047C0001688344013B10CB1012000E0002070BD08
:1047D00010B50022002340F66A14A14200D100BFA8
:1047E0000A1201249440A3B2DC43048010BD0000EF
:1047F000003801400044004000480040004C0040A8
:104800000050004010B50121480700F056FA002181
:104810004FF0005000F051FA10BD30B500220023D7
:104820005A4C226840F6FE748440A243D1E9004508
:104830002C438D682C43CD6844EA050303FA00F449
:104840002243524C226030BD0021016041608160F2
:10485000C160704739B14D4A1268012383401A4341
:104860004A4B1A6006E0494A1268012383409A4382
:10487000464B1A60704741B1444A12684FF4805366
:1048800083401A43414B1A6007E0404A12684FF4D4
:10489000805383409A433D4B1A60704710B551B125
:1048A0003A4A121D126804090123A3401A43374BE8
:1048B0001B1D1A6009E0354A121D12680409012304
:1048C000A3409A43314B1B1D1A6010BD40B12F49C4
:1048D000091D096841F003012C4A121D116007E00F
:1048E0002A49091D096821F00301284A121D116097
:1048F000704710B53AB1254B1B6801FA00F4234309
:10490000224C236006E0214B1B6801FA00F4A3430C
:104910001E4C236010BD08B5002200921B4A009275
:1049200000F10802009B1A440092009A116008BD31
:1049300008B500220092154A009200F11402009B73
:104940001A440092009A116008BD30B5002400237B
:10495000082802D142EA012401E042EA01440B4B5B
:1049600000F120052B441C6030BD08B50146002035
:104970000090064800902C2000EB9100009A104413
:1049800000900098006880B208BD000000740040EC
:10499000DF48006840F00100DD49086008464068D3
:1049A000DC490840DA49486008460068DA490840AE
:1049B000D74908600846006820F48020086008464F
:1049C000406820F4FE0048604FF41F008860704784
:1049D000CF49096821F48031CD4A11601146096838
:1049E00021F480211160B0F5803F03D0B0F5802F15
:1049F0000ED106E0C649096841F48031C44A11600D
:104A000007E0C349096841F4A021C14A116000E0F0
:104A100000BF00BF704710B50146002200230020F0
:104A20004A11012A02D1BA4C236806E0022A02D1B7
:104A3000B74C236A01E0B64C636A01F01F020124FF
:104A400094401C400CB1012000E0002010BD38B59E
:104A5000002000900024002500BF3120FFF7DBFF7D
:104A600005460098401C00900098B0F5A06F01D05A
:104A7000002DF2D03120FFF7CEFF08B1012400E075
:104A80000024204638BD01460020A14A106820F0CD
:104A9000F80040EAC10010607047A0490860704704
:104AA000024600209A4B586820F47C1042EA010329
:104AB0001843974B586070479849086670470146FD
:104AC0000020934A506820F003000843506070476C
:104AD0008F48406800F00C007047014600208C4A67
:104AE000506820F0F00008435060704701460020F5
:104AF000874A506820F4E0600843506070470146E0
:104B00000020834A506820F4605040EAC1005060A1
:104B1000704729B17E4A527A02437D4B5A7204E0B3
:104B20007B4A527A82437A4B5A7270477B49D8311A
:104B30000860704701460020754A506820F44040E4
:104B40000843506070470021714A20321170704A4A
:104B500082F82010012802D004280AD104E00121A3
:104B60006B4A2032117005E00521694A203211702C
:104B700000E000BF00BF70476949086070476449A2
:104B8000096A0143624A1162704765494439086005
:104B9000704730B500210022002400235C4D6D6871
:104BA00005F00C0121B1042905D0082923D105E025
:104BB0005C4D056022E05B4D05601FE0544D6D6863
:104BC00005F47012524D6D6805F48034022505EB32
:104BD00092421CB9544D554305600BE04C4D6D6835
:104BE00005F400351DB1504D5543056002E04D4DB3
:104BF0005543056002E04B4D056000BF00BF444DCA
:104C00006D6805F0F0010909484D6B5C0568DD40F1
:104C100045603F4D6D6805F4E061090A434D6B5CEA
:104C20004568DD4085603A4D6D6805F46051C90AFC
:104C30003E4D6B5C4568DD40C560354D6D6805F4E3
:104C40004041890B3A4D6B5CC568B5FBF3F50561D6
:104C500030BD29B12E4A526902432D4B5A6104E0FE
:104C60002B4A526982432A4B5A61704729B1284A1C
:104C700092690243264B9A6104E0254A9269824375
:104C8000234B9A61704729B1214AD2690243204BD4
:104C9000DA6104E01E4AD26982431D4BDA61704733
:104CA00029B11B4AD2680243194BDA6004E0184A62
:104CB000D2688243164BDA60704729B1144A1269F0
:104CC0000243134B1A6104E0114A12698243104BEC
:104CD0001A61704712494039086070470F49C8642B
:104CE00070470B49C87170470948406A40F08070AE
:104CF00007494862704701460020054A92680A4009
:104D00000AB1012000E00020704701498872704715
:104D1000001002400000FFF8FFFFF6FE00004242D4
:104D20008004424200127A0000093D008200002007
:104D30009200002010B50446FE48844208D10121AB
:104D4000C014FFF7ADFF0021E014FFF7A9FFC4E096
:104D5000B4F1804F08D101210846FFF7AEFF0021D2
:104D60000120FFF7AAFFB8E0F348844208D10121EF
:104D70000220FFF7A2FF00210220FFF79EFFACE018
:104D8000EE48844208D101210420FFF796FF00215C
:104D90000420FFF792FFA0E0E948844208D10121F6
:104DA0000820FFF78AFF00210820FFF786FF94E024
:104DB000E448844208D101211020FFF77EFF002142
:104DC0001020FFF77AFF88E0DF48844208D10121F4
:104DD0002020FFF772FF00212020FFF76EFF7CE00C
:104DE000DA48844208D101214014FFF759FF00211D
:104DF0006014FFF755FF70E0D548844209D10121C6
:104E0000C804FFF74DFF00214FF40020FFF748FFD3
:104E100063E0D048844209D101210805FFF740FF33
:104E200000214FF48010FFF73BFF56E0CA48844250
:104E300009D101214805FFF733FF00214FF400108D
:104E4000FFF72EFF49E0C548844208D101214020E8
:104E5000FFF733FF00214020FFF72FFF3DE0C04860
:104E6000844208D101218020FFF727FF0021802004
:104E7000FFF723FF31E0BB48844208D101218015B0
:104E8000FFF71BFF0021A015FFF717FF25E0B6482D
:104E9000844209D101210804FFF702FF00214FF4E9
:104EA0008030FFF7FDFE18E0B048844209D10121AF
:104EB0004804FFF7F5FE00214FF40030FFF7F0FE45
:104EC0000BE0AB48844208D101218804FFF7E8FEDB
:104ED00000214FF48020FFF7E3FE10BD002202887E
:104EE000944B98420ED0994B98420BD0B0F1804F22
:104EF00008D0914B984205D0904B984202D0904BED
:104F0000984204D14FF68F731A404B881A438D4B49
:104F1000984207D08C4B984204D04FF6FF431A407A
:104F2000CB881A4302808B8883850B880385814B4D
:104F300098420BD0854B984208D08B4B984205D0B5
:104F40008A4B984202D08A4B984201D10B7A038651
:104F500001238382704770B5002400220023058C52
:104F60004FF6FE7635400584028C8388048B4FF61D
:104F70008F752C40B51E2C400D882C43751E2A4081
:104F80000D892A434D882A436A4DA8420BD06F4DA4
:104F9000A84208D0744DA84205D0744DA84202D052
:104FA000734DA84213D14FF6F7752A404D892A4315
:104FB0004FF6FB752A408D882A434FF6FF652B403C
:104FC0004FF6FF552B408D892B43CD892B43838092
:104FD0000483CD888586028470BD70B500240022CC
:104FE0000023058C4FF6EF7635400584028C8388CC
:104FF000048B48F6FF752C404FF6FF452C400D887A
:105000004FF6FF7606EA05252C434FF6DF752A405A
:105010000D8906EA05152A434D8806EA05152A4337
:10502000444DA84202D0494DA8421DD14FF67F758C
:105030002A404D894FF6FF7606EA05152A434FF6BA
:10504000BF752A408D8806EA05152A434FF6FF35BD
:105050002B404FF2FF752B408D8906EA85052B43C7
:10506000CD8906EA85052B4383800483CD88058797
:10507000028470BD70B5002400220023058C4FF619
:10508000FF6635400584028C8388848B4FF68F75CC
:105090002C404FF6FC752C400D882C434FF6FF55E5
:1050A0002A400D894FF6FF7606EA05252A434D88EA
:1050B00006EA05252A431F4DA84202D0234DA842E7
:1050C0001DD14FF2FF752A404D894FF6FF7606EA53
:1050D00005252A434FF6FF352A408D8806EA052527
:1050E0002A434EF6FF752B404DF6FF752B408D89F8
:1050F00006EA05152B43CD8906EA05152B43838067
:105100008483CD888587028470BD70B5002200231A
:105110000024058C4EF6FF7635400584038C848888
:10512000828B48F6FF752A404FF6FF452A400D88CE
:1051300020E00000002C0140000400400008004076
:10514000000C0040001000400014004000340140FA
:10515000004C014000500140005401400018004044
:10516000001C00400020004000400140004401407D
:10517000004801404FF6FF7606EA05252A434DF622
:10518000FF752B400D8906EA05352B434D8806EA4D
:1051900005352B43FA4DA84202D0FA4DA84208D15A
:1051A0004BF6FF752C408D894FF6FF7606EA851584
:1051B0002C4384808283CD88A0F84050038470BD46
:1051C000828B4FF2FF331A408283828B4FF6FF733C
:1051D00003EA01231A4382837047F0B50C46154653
:1051E000002200210026078C4EF6FF7C07EA0C0700
:1051F0000784828B018C4FF6FF7707EA043640F66E
:10520000FF473A404FF6FF7707EA05273A434FF644
:10521000FF7707EA03373A43D94FB8420ED0D94F48
:10522000B8420BD0B0F1804F08D0D74FB84205D06C
:10523000D64FB84202D0D64FB84206D14DF6FF77CE
:10524000394046F48057394305E047F6FF57394067
:1052500044F48057394382830184F0BD828B4FF63A
:10526000F3731A408283828B0A4382837047F0B5BE
:105270000C461546002200210026078C4FF6FF6CD5
:1052800007EA0C070784828B018C4FF6FF7707EA49
:1052900004264FF60C773A404FF6FF7707EA0317DC
:1052A0002F433A43B64FB8420ED0B64FB8420BD058
:1052B000B0F1804F08D0B44FB84205D0B34FB842D8
:1052C00002D0B34FB84206D14FF6FF57394046F4EB
:1052D0008077394305E04FF2FF57394044F4807737
:1052E000394382830184F0BD028B4FF2FF331A40B1
:1052F0000283028B4FF6FF7303EA01231A430283F2
:105300007047F0B50C461546002200210026078C98
:105310004FF6EF7C07EA0C070784028B018C4FF6EF
:10532000FF7707EA041640F6FF473A404FF6FF774B
:1053300007EA03373A434FF6FF7707EA05273A4370
:105340008F4FB8420ED08F4FB8420BD0B0F1804F84
:1053500008D08D4FB84205D08C4FB84202D08C4F48
:10536000B84206D14FF6DF77394046F0100739438F
:1053700005E04FF65F77394044F010073943028368
:105380000184F0BD028B4FF6F3731A400283028B47
:105390000A4302837047F0B50C46154600220021EF
:1053A000068C4FF6FE773E400684028B018C4FF64A
:1053B0000C7632407E1C06EA03162E433243704EB2
:1053C000B0420ED06F4EB0420BD0B0F1804F08D03B
:1053D0006D4EB04205D06D4EB04202D06C4EB04220
:1053E00006D14FF6FD76314044F00106314305E029
:1053F0004FF6F576314044F00106314302830184D3
:10540000F0BD70B505460C465D4885420ED05D483E
:1054100085420BD0B5F1804F08D05B48854205D05E
:105420005A48854202D05A48854200D100E000BF68
:10543000208850B92389A28861882846FFF7ABFFEE
:10544000E1882846FFF79EFF25E0208804280AD13E
:105450002389A28861882846FFF753FFE188284600
:10546000FFF742FF17E0208808280AD12389A28885
:1054700061882846FFF7FBFEE1882846FFF7EEFE2D
:1054800009E02389A28861882846FFF7A6FEE18803
:105490002846FFF795FE70BD2DE9F04105460C4604
:1054A00000260127608808B9022600E00026A088AF
:1054B000012801D1022700E001272088A0B9238913
:1054C000A28861882846FFF766FFE1882846FFF733
:1054D00059FF23893A4631462846FFF712FFE188F3
:1054E0002846FFF701FF13E02389A2886188284638
:1054F000FFF707FFE1882846FFF7F6FE23893A46C3
:1055000031462846FFF747FFE1882846FFF73AFF74
:10551000BDE8F0810A884B881A438B881A43CB88F0
:105520001A430B891A434B891A438B891A43A0F8F3
:10553000442070474FF6FF71818000210180C180B7
:105540004180017270470021018041808180C180CB
:10555000018141818181C1817047002101804180A9
:10556000012181800021C1800181704700210180DB
:1055700041808180C180018141818181704700002B
:10558000002C0140003401400004004000080040AD
:10559000000C004021B1028842F00102028004E0C8
:1055A00002884FF6FE731A400280704731B1B0F89E
:1055B000442042F40042A0F8442005E0B0F8442022
:1055C000C2F30E02A0F8442070471AB183890B433E
:1055D000838102E083898B43838170478182704796
:1055E00041EA0203A0F8483070471AB183890B439F
:1055F000838102E083898B438381704701894FF661
:10560000F8721140018170470A46002101894FF666
:105610008F73194011430181704730B504460D4620
:1056200029462046FFF7F0FF208940F0070020813F
:1056300030BD2DE9F04104460D4616461F46602D4B
:1056400006D13B46012231462046FFF75AFE05E0CF
:105650003B46012231462046FFF79DFE2946204663
:10566000FFF7D2FF208940F007002081BDE8F081DC
:1056700030B50C4600210189C9B24FF6FF7505EA25
:105680000325154325432943018130BD2DE9F04110
:1056900005460E4617469846002443463A4631468C
:1056A0002846FFF7E5FF2C894FF6F870044044F0D8
:1056B00007044FF68F70044044F070042C81BDE85D
:1056C000F081F0B504460D4616461F463B4632466D
:1056D00029462046FFF7CCFF208940F480402081F6
:1056E000F0BD0185828270470A46002101884FF68D
:1056F0008F731940114301807047F0B50C46154671
:105700001E460021002200230189028B038C4FF6E4
:10571000F877394021434FF6FC473A4040F20117F1
:105720003A434FF6DD773B404FF6FF7707EA06171F
:105730002F433B43018102830384F0BD0A460021CD
:10574000018B4FF68F7319401143018370470A464E
:105750000021018B48F6FF7319404FF6FF7303EAEF
:1057600002231943018370470A460021818B4FF6BB
:105770008F7319401143818370470A460021818B42
:1057800048F6FF7319404FF6FF7303EA02231943EB
:105790008183704721B1028842F08002028004E0D8
:1057A00002884FF67F731A400280704721B18288C9
:1057B00042F00402828004E082884FF6FB731A40B4
:1057C0008280704721B1828842F00802828004E022
:1057D00082884FF6F7731A408280704721B1828821
:1057E00042F00102828004E082884FF6FE731A4084
:1057F000828070470A460021018B4FF6F7731940EB
:105800001143018370470A460021018B4FF2FF7359
:1058100019404FF6FF7303EA0223194301837047CF
:105820000A460021818B4FF6F7731940114381839B
:1058300070470A460021818B4FF2FF7319404FF6E3
:10584000FF7303EA02231943818370470A4600214C
:10585000018B4FF6FB7319401143018370470A46D1
:105860000021018B4FF6FF3319404FF6FF7303EA17
:1058700002231943018370470A460021818B4FF6AA
:10588000FB7319401143818370470A460021818BC5
:105890004FF6FF3319404FF6FF7303EA0223194313
:1058A000818370470A460021018B4FF67F731940B0
:1058B0001143018370470A460021018BC1F30E0199
:1058C0004FF6FF7303EA02231943018370470A4628
:1058D0000021818B4FF67F731940114381837047FC
:1058E0000A460021818BC1F30E014FF6FF7303EAD4
:1058F00002231943818370470A460021018C4FF629
:10590000FD7319401143018470470A460021018C40
:105910004FF6F77319401143018470470A4600217E
:10592000018C4FF6DF7319404FF6FF7303EA021341
:105930001943018470470A460021018C4FF67F739A
:1059400019404FF6FF7303EA0213194301847047AD
:105950000A460021018C4FF6FF5319404FF6FF73A2
:1059600003EA02231943018470470A460021018C8F
:105970004FF2FF7319404FF6FF7303EA02231943F6
:10598000018470470A460021018C4DF6FF731940CF
:105990004FF6FF7303EA023319430184704730B5B1
:1059A000002301248C40A3B2048C9C430484048C07
:1059B00002FA01F5ADB22C43048430BD30B50023AA
:1059C00004248C40A3B2048C9C430484048C02FA0B
:1059D00001F5ADB22C43048430BD70B50346002000
:1059E00000241846183001258D40ACB21D8CA5430B
:1059F0001D8409B1082909D100EB6100056825F073
:105A0000700505600568154305600EE00D1FC5F3C0
:105A10004E052844056825F4E045056005684FF605
:105A2000FF7606EA02263543056070BD21B1028883
:105A300042F00202028004E002884FF6FD731A4031
:105A40000280704721B1028842F00402028004E023
:105A500002884FF6FB731A400280704721B182889A
:105A600042F08002828004E082884FF67F731A4001
:105A70008280704702884FF6F7731A4002800288CE
:105A80000A430280704782884FF68F731A408280E3
:105A900082880A438280704702894FF6F8731A4061
:105AA000028102890A430281704702894FF67F739F
:105AB0001A40028102890A4302817047818470473B
:105AC000818570478186704701877047818770475D
:105AD000A0F84010704702884FF6FF431A4002803A
